{
  "_format": "hh-sol-artifact-1",
  "contractName": "Marketplace",
  "sourceName": "contracts/Marketplace.sol",
  "abi": [
    {
      "inputs": [
        {
          "internalType": "address",
          "name": "_ticketNFTAddress",
          "type": "address"
        },
        {
          "internalType": "uint256",
          "name": "_initialFeeBasisPoints",
          "type": "uint256"
        },
        {
          "internalType": "address payable",
          "name": "_initialServiceWallet",
          "type": "address"
        }
      ],
      "stateMutability": "nonpayable",
      "type": "constructor"
    },
    {
      "inputs": [
        {
          "internalType": "address",
          "name": "owner",
          "type": "address"
        }
      ],
      "name": "OwnableInvalidOwner",
      "type": "error"
    },
    {
      "inputs": [
        {
          "internalType": "address",
          "name": "account",
          "type": "address"
        }
      ],
      "name": "OwnableUnauthorizedAccount",
      "type": "error"
    },
    {
      "inputs": [],
      "name": "ReentrancyGuardReentrantCall",
      "type": "error"
    },
    {
      "anonymous": false,
      "inputs": [
        {
          "indexed": true,
          "internalType": "uint256",
          "name": "tokenId",
          "type": "uint256"
        },
        {
          "indexed": true,
          "internalType": "address",
          "name": "seller",
          "type": "address"
        },
        {
          "indexed": false,
          "internalType": "uint256",
          "name": "price",
          "type": "uint256"
        }
      ],
      "name": "ItemListed",
      "type": "event"
    },
    {
      "anonymous": false,
      "inputs": [
        {
          "indexed": true,
          "internalType": "uint256",
          "name": "tokenId",
          "type": "uint256"
        },
        {
          "indexed": true,
          "internalType": "address",
          "name": "seller",
          "type": "address"
        },
        {
          "indexed": true,
          "internalType": "address",
          "name": "buyer",
          "type": "address"
        },
        {
          "indexed": false,
          "internalType": "uint256",
          "name": "price",
          "type": "uint256"
        },
        {
          "indexed": false,
          "internalType": "uint256",
          "name": "serviceFee",
          "type": "uint256"
        }
      ],
      "name": "ItemSold",
      "type": "event"
    },
    {
      "anonymous": false,
      "inputs": [
        {
          "indexed": true,
          "internalType": "uint256",
          "name": "tokenId",
          "type": "uint256"
        },
        {
          "indexed": true,
          "internalType": "address",
          "name": "seller",
          "type": "address"
        }
      ],
      "name": "ListingCancelled",
      "type": "event"
    },
    {
      "anonymous": false,
      "inputs": [
        {
          "indexed": true,
          "internalType": "address",
          "name": "previousOwner",
          "type": "address"
        },
        {
          "indexed": true,
          "internalType": "address",
          "name": "newOwner",
          "type": "address"
        }
      ],
      "name": "OwnershipTransferred",
      "type": "event"
    },
    {
      "anonymous": false,
      "inputs": [
        {
          "indexed": false,
          "internalType": "uint256",
          "name": "newFeeBasisPoints",
          "type": "uint256"
        }
      ],
      "name": "ServiceFeeUpdated",
      "type": "event"
    },
    {
      "anonymous": false,
      "inputs": [
        {
          "indexed": false,
          "internalType": "address",
          "name": "newWallet",
          "type": "address"
        }
      ],
      "name": "ServiceWalletUpdated",
      "type": "event"
    },
    {
      "inputs": [
        {
          "internalType": "uint256",
          "name": "_tokenId",
          "type": "uint256"
        }
      ],
      "name": "buyItem",
      "outputs": [],
      "stateMutability": "payable",
      "type": "function"
    },
    {
      "inputs": [
        {
          "internalType": "uint256",
          "name": "_tokenId",
          "type": "uint256"
        }
      ],
      "name": "cancelListing",
      "outputs": [],
      "stateMutability": "nonpayable",
      "type": "function"
    },
    {
      "inputs": [
        {
          "internalType": "uint256",
          "name": "_tokenId",
          "type": "uint256"
        },
        {
          "internalType": "uint256",
          "name": "_price",
          "type": "uint256"
        }
      ],
      "name": "listItem",
      "outputs": [],
      "stateMutability": "nonpayable",
      "type": "function"
    },
    {
      "inputs": [
        {
          "internalType": "uint256",
          "name": "",
          "type": "uint256"
        }
      ],
      "name": "listings",
      "outputs": [
        {
          "internalType": "address",
          "name": "seller",
          "type": "address"
        },
        {
          "internalType": "uint256",
          "name": "price",
          "type": "uint256"
        },
        {
          "internalType": "bool",
          "name": "active",
          "type": "bool"
        }
      ],
      "stateMutability": "view",
      "type": "function"
    },
    {
      "inputs": [],
      "name": "owner",
      "outputs": [
        {
          "internalType": "address",
          "name": "",
          "type": "address"
        }
      ],
      "stateMutability": "view",
      "type": "function"
    },
    {
      "inputs": [],
      "name": "renounceOwnership",
      "outputs": [],
      "stateMutability": "nonpayable",
      "type": "function"
    },
    {
      "inputs": [],
      "name": "serviceFeeBasisPoints",
      "outputs": [
        {
          "internalType": "uint256",
          "name": "",
          "type": "uint256"
        }
      ],
      "stateMutability": "view",
      "type": "function"
    },
    {
      "inputs": [],
      "name": "serviceWallet",
      "outputs": [
        {
          "internalType": "address payable",
          "name": "",
          "type": "address"
        }
      ],
      "stateMutability": "view",
      "type": "function"
    },
    {
      "inputs": [
        {
          "internalType": "uint256",
          "name": "_newFeeBasisPoints",
          "type": "uint256"
        }
      ],
      "name": "setServiceFeeBasisPoints",
      "outputs": [],
      "stateMutability": "nonpayable",
      "type": "function"
    },
    {
      "inputs": [
        {
          "internalType": "address payable",
          "name": "_newServiceWallet",
          "type": "address"
        }
      ],
      "name": "setServiceWallet",
      "outputs": [],
      "stateMutability": "nonpayable",
      "type": "function"
    },
    {
      "inputs": [],
      "name": "ticketNFTContract",
      "outputs": [
        {
          "internalType": "contract TicketNFT",
          "name": "",
          "type": "address"
        }
      ],
      "stateMutability": "view",
      "type": "function"
    },
    {
      "inputs": [
        {
          "internalType": "address",
          "name": "newOwner",
          "type": "address"
        }
      ],
      "name": "transferOwnership",
      "outputs": [],
      "stateMutability": "nonpayable",
      "type": "function"
    }
  ],
  "bytecode": "0x60a060405234801561001057600080fd5b5060405161231e38038061231e833981810160405281019061003291906103b9565b33600073ffffffffffffffffffffffffffffffffffffffff168173ffffffffffffffffffffffffffffffffffffffff16036100a55760006040517f1e4fbdf700000000000000000000000000000000000000000000000000000000815260040161009c919061041b565b60405180910390fd5b6100b48161021e60201b60201c565b5060018081905550600073ffffffffffffffffffffffffffffffffffffffff168373ffffffffffffffffffffffffffffffffffffffff160361012b576040517f08c379a0000000000000000000000000000000000000000000000000000000008152600401610122906104b9565b60405180910390fd5b600073ffffffffffffffffffffffffffffffffffffffff168173ffffffffffffffffffffffffffffffffffffffff160361019a576040517f08c379a00000000000000000000000000000000000000000000000000000000081526004016101919061054b565b60405180910390fd5b8273ffffffffffffffffffffffffffffffffffffffff1660808173ffffffffffffffffffffffffffffffffffffffff16815250508160028190555080600360006101000a81548173ffffffffffffffffffffffffffffffffffffffff021916908373ffffffffffffffffffffffffffffffffffffffff16021790555050505061056b565b60008060009054906101000a900473ffffffffffffffffffffffffffffffffffffffff169050816000806101000a81548173ffffffffffffffffffffffffffffffffffffffff021916908373ffffffffffffffffffffffffffffffffffffffff1602179055508173ffffffffffffffffffffffffffffffffffffffff168173ffffffffffffffffffffffffffffffffffffffff167f8be0079c531659141344cd1fd0a4f28419497f9722a3daafe3b4186f6b6457e060405160405180910390a35050565b600080fd5b600073ffffffffffffffffffffffffffffffffffffffff82169050919050565b6000610312826102e7565b9050919050565b61032281610307565b811461032d57600080fd5b50565b60008151905061033f81610319565b92915050565b6000819050919050565b61035881610345565b811461036357600080fd5b50565b6000815190506103758161034f565b92915050565b6000610386826102e7565b9050919050565b6103968161037b565b81146103a157600080fd5b50565b6000815190506103b38161038d565b92915050565b6000806000606084860312156103d2576103d16102e2565b5b60006103e086828701610330565b93505060206103f186828701610366565b9250506040610402868287016103a4565b9150509250925092565b61041581610307565b82525050565b6000602082019050610430600083018461040c565b92915050565b600082825260208201905092915050565b7f4d61726b6574706c6163653a20496e646972697a7a6f204e4654206e6f6e207660008201527f616c69646f000000000000000000000000000000000000000000000000000000602082015250565b60006104a3602583610436565b91506104ae82610447565b604082019050919050565b600060208201905081810360008301526104d281610496565b9050919050565b7f4d61726b6574706c6163653a20496e646972697a7a6f2073657276697a696f2060008201527f6e6f6e2076616c69646f00000000000000000000000000000000000000000000602082015250565b6000610535602a83610436565b9150610540826104d9565b604082019050919050565b6000602082019050818103600083015261056481610528565b9050919050565b608051611d756105a9600039600081816104fa01528181610568015281816106d801528181610813015281816108ca0152610e080152611d756000f3fe6080604052600436106100a75760003560e01c8063883efa6711610064578063883efa67146101965780638da5cb5b146101bf578063d1f34506146101ea578063de74e57b14610213578063e7fb74c714610252578063f2fde38b1461026e576100a7565b806323bffccc146100ac578063305a67a8146100d557806330c7b45f146100fe578063431fbc68146101295780635641f3c314610154578063715018a61461017f575b600080fd5b3480156100b857600080fd5b506100d360048036038101906100ce91906111bc565b610297565b005b3480156100e157600080fd5b506100fc60048036038101906100f7919061121f565b610389565b005b34801561010a57600080fd5b506101136104f8565b60405161012091906112ab565b60405180910390f35b34801561013557600080fd5b5061013e61051c565b60405161014b91906112d5565b60405180910390f35b34801561016057600080fd5b50610169610522565b60405161017691906112ff565b60405180910390f35b34801561018b57600080fd5b50610194610548565b005b3480156101a257600080fd5b506101bd60048036038101906101b8919061131a565b61055c565b005b3480156101cb57600080fd5b506101d4610abc565b6040516101e1919061137b565b60405180910390f35b3480156101f657600080fd5b50610211600480360381019061020c919061121f565b610ae5565b005b34801561021f57600080fd5b5061023a6004803603810190610235919061121f565b610b73565b604051610249939291906113b1565b60405180910390f35b61026c6004803603810190610267919061121f565b610bca565b005b34801561027a57600080fd5b5061029560048036038101906102909190611414565b610f0d565b005b61029f610f93565b600073ffffffffffffffffffffffffffffffffffffffff168173ffffffffffffffffffffffffffffffffffffffff160361030e576040517f08c379a0000000000000000000000000000000000000000000000000000000008152600401610305906114c4565b60405180910390fd5b80600360006101000a81548173ffffffffffffffffffffffffffffffffffffffff021916908373ffffffffffffffffffffffffffffffffffffffff1602179055507fb230a0c075837f61328839894753bab90aa32699d692039d4e22ffe3a9ce9f768160405161037e9190611505565b60405180910390a150565b61039161101a565b60006004600083815260200190815260200160002090508060020160009054906101000a900460ff166103f9576040517f08c379a00000000000000000000000000000000000000000000000000000000081526004016103f090611592565b60405180910390fd5b8060000160009054906101000a900473ffffffffffffffffffffffffffffffffffffffff1673ffffffffffffffffffffffffffffffffffffffff163373ffffffffffffffffffffffffffffffffffffffff161461048b576040517f08c379a000000000000000000000000000000000000000000000000000000000815260040161048290611624565b60405180910390fd5b60008160020160006101000a81548160ff0219169083151502179055503373ffffffffffffffffffffffffffffffffffffffff16827f8e25282255ab31897df2b0456bb993ac7f84d376861aefd84901d2d63a7428a260405160405180910390a3506104f5611060565b50565b7f000000000000000000000000000000000000000000000000000000000000000081565b60025481565b600360009054906101000a900473ffffffffffffffffffffffffffffffffffffffff1681565b610550610f93565b61055a6000611069565b565b61056461101a565b60007f000000000000000000000000000000000000000000000000000000000000000073ffffffffffffffffffffffffffffffffffffffff16636352211e846040518263ffffffff1660e01b81526004016105bf91906112d5565b602060405180830381865afa1580156105dc573d6000803e3d6000fd5b505050506040513d601f19601f820116820180604052508101906106009190611659565b90508073ffffffffffffffffffffffffffffffffffffffff163373ffffffffffffffffffffffffffffffffffffffff1614610670576040517f08c379a0000000000000000000000000000000000000000000000000000000008152600401610667906116f8565b60405180910390fd5b6004600084815260200190815260200160002060020160009054906101000a900460ff16156106d4576040517f08c379a00000000000000000000000000000000000000000000000000000000081526004016106cb90611764565b60405180910390fd5b60007f000000000000000000000000000000000000000000000000000000000000000073ffffffffffffffffffffffffffffffffffffffff1663394803fd856040518263ffffffff1660e01b815260040161072f91906112d5565b606060405180830381865afa15801561074c573d6000803e3d6000fd5b505050506040513d601f19601f820116820180604052508101906107709190611799565b50915050600083116107b7576040517f08c379a00000000000000000000000000000000000000000000000000000000081526004016107ae9061185e565b60405180910390fd5b808311156107fa576040517f08c379a00000000000000000000000000000000000000000000000000000000081526004016107f1906118f0565b60405180910390fd5b3073ffffffffffffffffffffffffffffffffffffffff167f000000000000000000000000000000000000000000000000000000000000000073ffffffffffffffffffffffffffffffffffffffff1663081812fc866040518263ffffffff1660e01b815260040161086a91906112d5565b602060405180830381865afa158015610887573d6000803e3d6000fd5b505050506040513d601f19601f820116820180604052508101906108ab9190611659565b73ffffffffffffffffffffffffffffffffffffffff16148061096557507f000000000000000000000000000000000000000000000000000000000000000073ffffffffffffffffffffffffffffffffffffffff1663e985e9c583306040518363ffffffff1660e01b8152600401610923929190611910565b602060405180830381865afa158015610940573d6000803e3d6000fd5b505050506040513d601f19601f820116820180604052508101906109649190611965565b5b6109a4576040517f08c379a000000000000000000000000000000000000000000000000000000000815260040161099b90611a04565b60405180910390fd5b60405180606001604052803373ffffffffffffffffffffffffffffffffffffffff168152602001848152602001600115158152506004600086815260200190815260200160002060008201518160000160006101000a81548173ffffffffffffffffffffffffffffffffffffffff021916908373ffffffffffffffffffffffffffffffffffffffff1602179055506020820151816001015560408201518160020160006101000a81548160ff0219169083151502179055509050503373ffffffffffffffffffffffffffffffffffffffff16847fc93edc6ee14cd6c0c2842099adfa8953b237dbdad304ba28e96dce8a7f2a828c85604051610aa691906112d5565b60405180910390a35050610ab8611060565b5050565b60008060009054906101000a900473ffffffffffffffffffffffffffffffffffffffff16905090565b610aed610f93565b612710811115610b32576040517f08c379a0000000000000000000000000000000000000000000000000000000008152600401610b2990611a96565b60405180910390fd5b806002819055507fcb6d7cd9a715c819bc5a96c171f645b81d4d65b57cfe7d6b5e8a12f78022995d81604051610b6891906112d5565b60405180910390a150565b60046020528060005260406000206000915090508060000160009054906101000a900473ffffffffffffffffffffffffffffffffffffffff16908060010154908060020160009054906101000a900460ff16905083565b610bd261101a565b60006004600083815260200190815260200160002090508060020160009054906101000a900460ff16610c3a576040517f08c379a0000000000000000000000000000000000000000000000000000000008152600401610c3190611592565b60405180910390fd5b60008160000160009054906101000a900473ffffffffffffffffffffffffffffffffffffffff1690508073ffffffffffffffffffffffffffffffffffffffff163373ffffffffffffffffffffffffffffffffffffffff1603610cd1576040517f08c379a0000000000000000000000000000000000000000000000000000000008152600401610cc890611b28565b60405180910390fd5b6000826001015490506000610ce58261112d565b905060008183610cf59190611b77565b9050803414610d39576040517f08c379a0000000000000000000000000000000000000000000000000000000008152600401610d3090611c1d565b60405180910390fd5b60008560020160006101000a81548160ff021916908315150217905550600360009054906101000a900473ffffffffffffffffffffffffffffffffffffffff1673ffffffffffffffffffffffffffffffffffffffff166108fc839081150290604051600060405180830381858888f19350505050158015610dbe573d6000803e3d6000fd5b508373ffffffffffffffffffffffffffffffffffffffff166108fc849081150290604051600060405180830381858888f19350505050158015610e05573d6000803e3d6000fd5b507f000000000000000000000000000000000000000000000000000000000000000073ffffffffffffffffffffffffffffffffffffffff166342842e0e8533896040518463ffffffff1660e01b8152600401610e6393929190611c3d565b600060405180830381600087803b158015610e7d57600080fd5b505af1158015610e91573d6000803e3d6000fd5b505050503373ffffffffffffffffffffffffffffffffffffffff168473ffffffffffffffffffffffffffffffffffffffff16877fd2b8648ec6ff6bd9ed10162d6ec424ae792c12820a475e8ef52f23fd7da4f1eb8686604051610ef5929190611c74565b60405180910390a45050505050610f0a611060565b50565b610f15610f93565b600073ffffffffffffffffffffffffffffffffffffffff168173ffffffffffffffffffffffffffffffffffffffff1603610f875760006040517f1e4fbdf7000000000000000000000000000000000000000000000000000000008152600401610f7e919061137b565b60405180910390fd5b610f9081611069565b50565b610f9b611151565b73ffffffffffffffffffffffffffffffffffffffff16610fb9610abc565b73ffffffffffffffffffffffffffffffffffffffff161461101857610fdc611151565b6040517f118cdaa700000000000000000000000000000000000000000000000000000000815260040161100f919061137b565b60405180910390fd5b565b600260015403611056576040517f3ee5aeb500000000000000000000000000000000000000000000000000000000815260040160405180910390fd5b6002600181905550565b60018081905550565b60008060009054906101000a900473ffffffffffffffffffffffffffffffffffffffff169050816000806101000a81548173ffffffffffffffffffffffffffffffffffffffff021916908373ffffffffffffffffffffffffffffffffffffffff1602179055508173ffffffffffffffffffffffffffffffffffffffff168173ffffffffffffffffffffffffffffffffffffffff167f8be0079c531659141344cd1fd0a4f28419497f9722a3daafe3b4186f6b6457e060405160405180910390a35050565b6000612710600254836111409190611c9d565b61114a9190611d0e565b9050919050565b600033905090565b600080fd5b600073ffffffffffffffffffffffffffffffffffffffff82169050919050565b60006111898261115e565b9050919050565b6111998161117e565b81146111a457600080fd5b50565b6000813590506111b681611190565b92915050565b6000602082840312156111d2576111d1611159565b5b60006111e0848285016111a7565b91505092915050565b6000819050919050565b6111fc816111e9565b811461120757600080fd5b50565b600081359050611219816111f3565b92915050565b60006020828403121561123557611234611159565b5b60006112438482850161120a565b91505092915050565b6000819050919050565b600061127161126c6112678461115e565b61124c565b61115e565b9050919050565b600061128382611256565b9050919050565b600061129582611278565b9050919050565b6112a58161128a565b82525050565b60006020820190506112c0600083018461129c565b92915050565b6112cf816111e9565b82525050565b60006020820190506112ea60008301846112c6565b92915050565b6112f98161117e565b82525050565b600060208201905061131460008301846112f0565b92915050565b6000806040838503121561133157611330611159565b5b600061133f8582860161120a565b92505060206113508582860161120a565b9150509250929050565b60006113658261115e565b9050919050565b6113758161135a565b82525050565b6000602082019050611390600083018461136c565b92915050565b60008115159050919050565b6113ab81611396565b82525050565b60006060820190506113c6600083018661136c565b6113d360208301856112c6565b6113e060408301846113a2565b949350505050565b6113f18161135a565b81146113fc57600080fd5b50565b60008135905061140e816113e8565b92915050565b60006020828403121561142a57611429611159565b5b6000611438848285016113ff565b91505092915050565b600082825260208201905092915050565b7f4d61726b6574706c6163653a20496e646972697a7a6f207a65726f206e6f6e2060008201527f76616c69646f0000000000000000000000000000000000000000000000000000602082015250565b60006114ae602683611441565b91506114b982611452565b604082019050919050565b600060208201905081810360008301526114dd816114a1565b9050919050565b60006114ef82611278565b9050919050565b6114ff816114e4565b82525050565b600060208201905061151a60008301846114f6565b92915050565b7f4d61726b6574706c6163653a204e4654206e6f6e206c69737461746f206f207660008201527f656e6475746f0000000000000000000000000000000000000000000000000000602082015250565b600061157c602683611441565b915061158782611520565b604082019050919050565b600060208201905081810360008301526115ab8161156f565b9050919050565b7f4d61726b6574706c6163653a204e6f6e2073656920696c2076656e6469746f7260008201527f6500000000000000000000000000000000000000000000000000000000000000602082015250565b600061160e602183611441565b9150611619826115b2565b604082019050919050565b6000602082019050818103600083015261163d81611601565b9050919050565b600081519050611653816113e8565b92915050565b60006020828403121561166f5761166e611159565b5b600061167d84828501611644565b91505092915050565b7f4d61726b6574706c6163653a204e6f6e2073656920696c2070726f707269657460008201527f6172696f00000000000000000000000000000000000000000000000000000000602082015250565b60006116e2602483611441565b91506116ed82611686565b604082019050919050565b60006020820190508181036000830152611711816116d5565b9050919050565b7f4d61726b6574706c6163653a204e46542067696127206c69737461746f000000600082015250565b600061174e601d83611441565b915061175982611718565b602082019050919050565b6000602082019050818103600083015261177d81611741565b9050919050565b600081519050611793816111f3565b92915050565b6000806000606084860312156117b2576117b1611159565b5b60006117c086828701611784565b93505060206117d186828701611784565b92505060406117e286828701611784565b9150509250925092565b7f4d61726b6574706c6163653a20496c207072657a7a6f2064657665206573736560008201527f726520706f73697469766f000000000000000000000000000000000000000000602082015250565b6000611848602b83611441565b9150611853826117ec565b604082019050919050565b600060208201905081810360008301526118778161183b565b9050919050565b7f4d61726b6574706c6163653a20496c207072657a7a6f20737570657261206c2760008201527f6f726967696e616c650000000000000000000000000000000000000000000000602082015250565b60006118da602983611441565b91506118e58261187e565b604082019050919050565b60006020820190508181036000830152611909816118cd565b9050919050565b6000604082019050611925600083018561136c565b611932602083018461136c565b9392505050565b61194281611396565b811461194d57600080fd5b50565b60008151905061195f81611939565b92915050565b60006020828403121561197b5761197a611159565b5b600061198984828501611950565b91505092915050565b7f4d61726b6574706c6163653a20436f6e74726174746f206e6f6e20617070726f60008201527f7661746f00000000000000000000000000000000000000000000000000000000602082015250565b60006119ee602483611441565b91506119f982611992565b604082019050919050565b60006020820190508181036000830152611a1d816119e1565b9050919050565b7f4d61726b6574706c6163653a20466565206e6f6e2076616c6964612028302d3160008201527f3030303029000000000000000000000000000000000000000000000000000000602082015250565b6000611a80602583611441565b9150611a8b82611a24565b604082019050919050565b60006020820190508181036000830152611aaf81611a73565b9050919050565b7f4d61726b6574706c6163653a204e6f6e2070756f6920636f6d7072617265206960008201527f6c2074756f204e46540000000000000000000000000000000000000000000000602082015250565b6000611b12602983611441565b9150611b1d82611ab6565b604082019050919050565b60006020820190508181036000830152611b4181611b05565b9050919050565b7f4e487b7100000000000000000000000000000000000000000000000000000000600052601160045260246000fd5b6000611b82826111e9565b9150611b8d836111e9565b9250828201905080821115611ba557611ba4611b48565b5b92915050565b7f4d61726b6574706c6163653a20506167616d656e746f2065736174746f20726960008201527f6368696573746f00000000000000000000000000000000000000000000000000602082015250565b6000611c07602783611441565b9150611c1282611bab565b604082019050919050565b60006020820190508181036000830152611c3681611bfa565b9050919050565b6000606082019050611c52600083018661136c565b611c5f602083018561136c565b611c6c60408301846112c6565b949350505050565b6000604082019050611c8960008301856112c6565b611c9660208301846112c6565b9392505050565b6000611ca8826111e9565b9150611cb3836111e9565b9250828202611cc1816111e9565b91508282048414831517611cd857611cd7611b48565b5b5092915050565b7f4e487b7100000000000000000000000000000000000000000000000000000000600052601260045260246000fd5b6000611d19826111e9565b9150611d24836111e9565b925082611d3457611d33611cdf565b5b82820490509291505056fea2646970667358221220151b549dfe17a68bcab1d8a7199be3db609a43c17017062793591491b47c7e1f64736f6c634300081c0033",
  "linkReferences": {},
  "deployedLinkReferences": {}
}