{
  "_format": "hh-sol-artifact-1",
  "contractName": "Marketplace",
  "sourceName": "contracts/Marketplace.sol",
  "abi": [
    {
      "inputs": [
        {
          "internalType": "address",
          "name": "_ticketNFTAddress",
          "type": "address"
        }
      ],
      "stateMutability": "nonpayable",
      "type": "constructor"
    },
    {
      "inputs": [
        {
          "internalType": "address",
          "name": "owner",
          "type": "address"
        }
      ],
      "name": "OwnableInvalidOwner",
      "type": "error"
    },
    {
      "inputs": [
        {
          "internalType": "address",
          "name": "account",
          "type": "address"
        }
      ],
      "name": "OwnableUnauthorizedAccount",
      "type": "error"
    },
    {
      "inputs": [],
      "name": "ReentrancyGuardReentrantCall",
      "type": "error"
    },
    {
      "anonymous": false,
      "inputs": [
        {
          "indexed": true,
          "internalType": "uint256",
          "name": "tokenId",
          "type": "uint256"
        },
        {
          "indexed": true,
          "internalType": "address",
          "name": "seller",
          "type": "address"
        },
        {
          "indexed": false,
          "internalType": "uint256",
          "name": "price",
          "type": "uint256"
        }
      ],
      "name": "ItemListed",
      "type": "event"
    },
    {
      "anonymous": false,
      "inputs": [
        {
          "indexed": true,
          "internalType": "uint256",
          "name": "tokenId",
          "type": "uint256"
        },
        {
          "indexed": true,
          "internalType": "address",
          "name": "seller",
          "type": "address"
        },
        {
          "indexed": true,
          "internalType": "address",
          "name": "buyer",
          "type": "address"
        },
        {
          "indexed": false,
          "internalType": "uint256",
          "name": "price",
          "type": "uint256"
        }
      ],
      "name": "ItemSold",
      "type": "event"
    },
    {
      "anonymous": false,
      "inputs": [
        {
          "indexed": true,
          "internalType": "uint256",
          "name": "tokenId",
          "type": "uint256"
        },
        {
          "indexed": true,
          "internalType": "address",
          "name": "seller",
          "type": "address"
        }
      ],
      "name": "ListingCancelled",
      "type": "event"
    },
    {
      "anonymous": false,
      "inputs": [
        {
          "indexed": true,
          "internalType": "address",
          "name": "previousOwner",
          "type": "address"
        },
        {
          "indexed": true,
          "internalType": "address",
          "name": "newOwner",
          "type": "address"
        }
      ],
      "name": "OwnershipTransferred",
      "type": "event"
    },
    {
      "inputs": [
        {
          "internalType": "uint256",
          "name": "_tokenId",
          "type": "uint256"
        }
      ],
      "name": "buyItem",
      "outputs": [],
      "stateMutability": "payable",
      "type": "function"
    },
    {
      "inputs": [
        {
          "internalType": "uint256",
          "name": "_tokenId",
          "type": "uint256"
        }
      ],
      "name": "cancelListing",
      "outputs": [],
      "stateMutability": "nonpayable",
      "type": "function"
    },
    {
      "inputs": [
        {
          "internalType": "uint256",
          "name": "_tokenId",
          "type": "uint256"
        },
        {
          "internalType": "uint256",
          "name": "_price",
          "type": "uint256"
        }
      ],
      "name": "listItem",
      "outputs": [],
      "stateMutability": "nonpayable",
      "type": "function"
    },
    {
      "inputs": [
        {
          "internalType": "uint256",
          "name": "",
          "type": "uint256"
        }
      ],
      "name": "listings",
      "outputs": [
        {
          "internalType": "address",
          "name": "seller",
          "type": "address"
        },
        {
          "internalType": "uint256",
          "name": "price",
          "type": "uint256"
        },
        {
          "internalType": "bool",
          "name": "active",
          "type": "bool"
        }
      ],
      "stateMutability": "view",
      "type": "function"
    },
    {
      "inputs": [],
      "name": "owner",
      "outputs": [
        {
          "internalType": "address",
          "name": "",
          "type": "address"
        }
      ],
      "stateMutability": "view",
      "type": "function"
    },
    {
      "inputs": [],
      "name": "renounceOwnership",
      "outputs": [],
      "stateMutability": "nonpayable",
      "type": "function"
    },
    {
      "inputs": [],
      "name": "ticketNFTContract",
      "outputs": [
        {
          "internalType": "contract TicketNFT",
          "name": "",
          "type": "address"
        }
      ],
      "stateMutability": "view",
      "type": "function"
    },
    {
      "inputs": [
        {
          "internalType": "address",
          "name": "newOwner",
          "type": "address"
        }
      ],
      "name": "transferOwnership",
      "outputs": [],
      "stateMutability": "nonpayable",
      "type": "function"
    }
  ],
  "bytecode": "0x60a060405234801561001057600080fd5b506040516118f93803806118f98339818101604052810190610032919061028c565b33600073ffffffffffffffffffffffffffffffffffffffff168173ffffffffffffffffffffffffffffffffffffffff16036100a55760006040517f1e4fbdf700000000000000000000000000000000000000000000000000000000815260040161009c91906102c8565b60405180910390fd5b6100b48161016560201b60201c565b5060018081905550600073ffffffffffffffffffffffffffffffffffffffff168173ffffffffffffffffffffffffffffffffffffffff160361012b576040517f08c379a000000000000000000000000000000000000000000000000000000000815260040161012290610366565b60405180910390fd5b8073ffffffffffffffffffffffffffffffffffffffff1660808173ffffffffffffffffffffffffffffffffffffffff168152505050610386565b60008060009054906101000a900473ffffffffffffffffffffffffffffffffffffffff169050816000806101000a81548173ffffffffffffffffffffffffffffffffffffffff021916908373ffffffffffffffffffffffffffffffffffffffff1602179055508173ffffffffffffffffffffffffffffffffffffffff168173ffffffffffffffffffffffffffffffffffffffff167f8be0079c531659141344cd1fd0a4f28419497f9722a3daafe3b4186f6b6457e060405160405180910390a35050565b600080fd5b600073ffffffffffffffffffffffffffffffffffffffff82169050919050565b60006102598261022e565b9050919050565b6102698161024e565b811461027457600080fd5b50565b60008151905061028681610260565b92915050565b6000602082840312156102a2576102a1610229565b5b60006102b084828501610277565b91505092915050565b6102c28161024e565b82525050565b60006020820190506102dd60008301846102b9565b92915050565b600082825260208201905092915050565b7f4d61726b6574706c6163653a20496e646972697a7a6f204e4654206e6f6e207660008201527f616c69646f000000000000000000000000000000000000000000000000000000602082015250565b60006103506025836102e3565b915061035b826102f4565b604082019050919050565b6000602082019050818103600083015261037f81610343565b9050919050565b6080516115356103c46000396000818161033401528181610376015281816104e9015281816105e30152818161069a0152610a3401526115356000f3fe60806040526004361061007b5760003560e01c80638da5cb5b1161004e5780638da5cb5b14610114578063de74e57b1461013f578063e7fb74c71461017e578063f2fde38b1461019a5761007b565b8063305a67a81461008057806330c7b45f146100a9578063715018a6146100d4578063883efa67146100eb575b600080fd5b34801561008c57600080fd5b506100a760048036038101906100a29190610d9b565b6101c3565b005b3480156100b557600080fd5b506100be610332565b6040516100cb9190610e47565b60405180910390f35b3480156100e057600080fd5b506100e9610356565b005b3480156100f757600080fd5b50610112600480360381019061010d9190610e62565b61036a565b005b34801561012057600080fd5b5061012961088e565b6040516101369190610ec3565b60405180910390f35b34801561014b57600080fd5b5061016660048036038101906101619190610d9b565b6108b7565b60405161017593929190610f08565b60405180910390f35b61019860048036038101906101939190610d9b565b61090e565b005b3480156101a657600080fd5b506101c160048036038101906101bc9190610f6b565b610b38565b005b6101cb610bbe565b60006002600083815260200190815260200160002090508060020160009054906101000a900460ff16610233576040517f08c379a000000000000000000000000000000000000000000000000000000000815260040161022a9061101b565b60405180910390fd5b8060000160009054906101000a900473ffffffffffffffffffffffffffffffffffffffff1673ffffffffffffffffffffffffffffffffffffffff163373ffffffffffffffffffffffffffffffffffffffff16146102c5576040517f08c379a00000000000000000000000000000000000000000000000000000000081526004016102bc906110ad565b60405180910390fd5b60008160020160006101000a81548160ff0219169083151502179055503373ffffffffffffffffffffffffffffffffffffffff16827f8e25282255ab31897df2b0456bb993ac7f84d376861aefd84901d2d63a7428a260405160405180910390a35061032f610c04565b50565b7f000000000000000000000000000000000000000000000000000000000000000081565b61035e610c0d565b6103686000610c94565b565b610372610bbe565b60007f000000000000000000000000000000000000000000000000000000000000000073ffffffffffffffffffffffffffffffffffffffff16636352211e846040518263ffffffff1660e01b81526004016103cd91906110cd565b602060405180830381865afa1580156103ea573d6000803e3d6000fd5b505050506040513d601f19601f8201168201806040525081019061040e91906110fd565b90508073ffffffffffffffffffffffffffffffffffffffff163373ffffffffffffffffffffffffffffffffffffffff161461047e576040517f08c379a00000000000000000000000000000000000000000000000000000000081526004016104759061119c565b60405180910390fd5b6002600084815260200190815260200160002060020160009054906101000a900460ff16156104e2576040517f08c379a00000000000000000000000000000000000000000000000000000000081526004016104d990611208565b60405180910390fd5b60008060007f000000000000000000000000000000000000000000000000000000000000000073ffffffffffffffffffffffffffffffffffffffff1663394803fd876040518263ffffffff1660e01b815260040161054091906110cd565b606060405180830381865afa15801561055d573d6000803e3d6000fd5b505050506040513d601f19601f82011682018060405250810190610581919061123d565b925092509250818511156105ca576040517f08c379a00000000000000000000000000000000000000000000000000000000081526004016105c190611302565b60405180910390fd5b3073ffffffffffffffffffffffffffffffffffffffff167f000000000000000000000000000000000000000000000000000000000000000073ffffffffffffffffffffffffffffffffffffffff1663081812fc886040518263ffffffff1660e01b815260040161063a91906110cd565b602060405180830381865afa158015610657573d6000803e3d6000fd5b505050506040513d601f19601f8201168201806040525081019061067b91906110fd565b73ffffffffffffffffffffffffffffffffffffffff16148061073557507f000000000000000000000000000000000000000000000000000000000000000073ffffffffffffffffffffffffffffffffffffffff1663e985e9c585306040518363ffffffff1660e01b81526004016106f3929190611322565b602060405180830381865afa158015610710573d6000803e3d6000fd5b505050506040513d601f19601f820116820180604052508101906107349190611377565b5b610774576040517f08c379a000000000000000000000000000000000000000000000000000000000815260040161076b90611416565b60405180910390fd5b60405180606001604052803373ffffffffffffffffffffffffffffffffffffffff168152602001868152602001600115158152506002600088815260200190815260200160002060008201518160000160006101000a81548173ffffffffffffffffffffffffffffffffffffffff021916908373ffffffffffffffffffffffffffffffffffffffff1602179055506020820151816001015560408201518160020160006101000a81548160ff0219169083151502179055509050503373ffffffffffffffffffffffffffffffffffffffff16867fc93edc6ee14cd6c0c2842099adfa8953b237dbdad304ba28e96dce8a7f2a828c8760405161087691906110cd565b60405180910390a35050505061088a610c04565b5050565b60008060009054906101000a900473ffffffffffffffffffffffffffffffffffffffff16905090565b60026020528060005260406000206000915090508060000160009054906101000a900473ffffffffffffffffffffffffffffffffffffffff16908060010154908060020160009054906101000a900460ff16905083565b610916610bbe565b60006002600083815260200190815260200160002090508060020160009054906101000a900460ff1661097e576040517f08c379a00000000000000000000000000000000000000000000000000000000081526004016109759061101b565b60405180910390fd5b60008160000160009054906101000a900473ffffffffffffffffffffffffffffffffffffffff1690508073ffffffffffffffffffffffffffffffffffffffff163373ffffffffffffffffffffffffffffffffffffffff1603610a15576040517f08c379a0000000000000000000000000000000000000000000000000000000008152600401610a0c906114a8565b60405180910390fd5b60008260020160006101000a81548160ff0219169083151502179055507f000000000000000000000000000000000000000000000000000000000000000073ffffffffffffffffffffffffffffffffffffffff166342842e0e8233866040518463ffffffff1660e01b8152600401610a8f939291906114c8565b600060405180830381600087803b158015610aa957600080fd5b505af1158015610abd573d6000803e3d6000fd5b505050503373ffffffffffffffffffffffffffffffffffffffff168173ffffffffffffffffffffffffffffffffffffffff16847f04ddd54c6b746e69ba87f862311f7670bd1d7276846778ac81cd38747b27a7468560010154604051610b2391906110cd565b60405180910390a45050610b35610c04565b50565b610b40610c0d565b600073ffffffffffffffffffffffffffffffffffffffff168173ffffffffffffffffffffffffffffffffffffffff1603610bb25760006040517f1e4fbdf7000000000000000000000000000000000000000000000000000000008152600401610ba99190610ec3565b60405180910390fd5b610bbb81610c94565b50565b600260015403610bfa576040517f3ee5aeb500000000000000000000000000000000000000000000000000000000815260040160405180910390fd5b6002600181905550565b60018081905550565b610c15610d58565b73ffffffffffffffffffffffffffffffffffffffff16610c3361088e565b73ffffffffffffffffffffffffffffffffffffffff1614610c9257610c56610d58565b6040517f118cdaa7000000000000000000000000000000000000000000000000000000008152600401610c899190610ec3565b60405180910390fd5b565b60008060009054906101000a900473ffffffffffffffffffffffffffffffffffffffff169050816000806101000a81548173ffffffffffffffffffffffffffffffffffffffff021916908373ffffffffffffffffffffffffffffffffffffffff1602179055508173ffffffffffffffffffffffffffffffffffffffff168173ffffffffffffffffffffffffffffffffffffffff167f8be0079c531659141344cd1fd0a4f28419497f9722a3daafe3b4186f6b6457e060405160405180910390a35050565b600033905090565b600080fd5b6000819050919050565b610d7881610d65565b8114610d8357600080fd5b50565b600081359050610d9581610d6f565b92915050565b600060208284031215610db157610db0610d60565b5b6000610dbf84828501610d86565b91505092915050565b600073ffffffffffffffffffffffffffffffffffffffff82169050919050565b6000819050919050565b6000610e0d610e08610e0384610dc8565b610de8565b610dc8565b9050919050565b6000610e1f82610df2565b9050919050565b6000610e3182610e14565b9050919050565b610e4181610e26565b82525050565b6000602082019050610e5c6000830184610e38565b92915050565b60008060408385031215610e7957610e78610d60565b5b6000610e8785828601610d86565b9250506020610e9885828601610d86565b9150509250929050565b6000610ead82610dc8565b9050919050565b610ebd81610ea2565b82525050565b6000602082019050610ed86000830184610eb4565b92915050565b610ee781610d65565b82525050565b60008115159050919050565b610f0281610eed565b82525050565b6000606082019050610f1d6000830186610eb4565b610f2a6020830185610ede565b610f376040830184610ef9565b949350505050565b610f4881610ea2565b8114610f5357600080fd5b50565b600081359050610f6581610f3f565b92915050565b600060208284031215610f8157610f80610d60565b5b6000610f8f84828501610f56565b91505092915050565b600082825260208201905092915050565b7f4d61726b6574706c6163653a204e4654206e6f6e206c69737461746f206f206760008201527f6961272076656e6475746f000000000000000000000000000000000000000000602082015250565b6000611005602b83610f98565b915061101082610fa9565b604082019050919050565b6000602082019050818103600083015261103481610ff8565b9050919050565b7f4d61726b6574706c6163653a204e6f6e2073656920696c2076656e6469746f7260008201527f6500000000000000000000000000000000000000000000000000000000000000602082015250565b6000611097602183610f98565b91506110a28261103b565b604082019050919050565b600060208201905081810360008301526110c68161108a565b9050919050565b60006020820190506110e26000830184610ede565b92915050565b6000815190506110f781610f3f565b92915050565b60006020828403121561111357611112610d60565b5b6000611121848285016110e8565b91505092915050565b7f4d61726b6574706c6163653a204e6f6e2073656920696c2070726f707269657460008201527f6172696f2064656c6c274e465400000000000000000000000000000000000000602082015250565b6000611186602d83610f98565b91506111918261112a565b604082019050919050565b600060208201905081810360008301526111b581611179565b9050919050565b7f4d61726b6574706c6163653a204e46542067696127206c69737461746f000000600082015250565b60006111f2601d83610f98565b91506111fd826111bc565b602082019050919050565b60006020820190508181036000830152611221816111e5565b9050919050565b60008151905061123781610d6f565b92915050565b60008060006060848603121561125657611255610d60565b5b600061126486828701611228565b935050602061127586828701611228565b925050604061128686828701611228565b9150509250925092565b7f4d61726b6574706c6163653a20496c207072657a7a6f20737570657261206c2760008201527f6f726967696e616c650000000000000000000000000000000000000000000000602082015250565b60006112ec602983610f98565b91506112f782611290565b604082019050919050565b6000602082019050818103600083015261131b816112df565b9050919050565b60006040820190506113376000830185610eb4565b6113446020830184610eb4565b9392505050565b61135481610eed565b811461135f57600080fd5b50565b6000815190506113718161134b565b92915050565b60006020828403121561138d5761138c610d60565b5b600061139b84828501611362565b91505092915050565b7f4d61726b6574706c6163653a20496c20636f6e74726174746f206e6f6e20652760008201527f20617070726f7661746f206120676573746972652071756573746f204e465400602082015250565b6000611400603f83610f98565b915061140b826113a4565b604082019050919050565b6000602082019050818103600083015261142f816113f3565b9050919050565b7f4d61726b6574706c6163653a204e6f6e2070756f6920636f6d7072617265206960008201527f6c2074756f2073746573736f204e465400000000000000000000000000000000602082015250565b6000611492603083610f98565b915061149d82611436565b604082019050919050565b600060208201905081810360008301526114c181611485565b9050919050565b60006060820190506114dd6000830186610eb4565b6114ea6020830185610eb4565b6114f76040830184610ede565b94935050505056fea2646970667358221220493d29d3c93f61082745a24b5c6d26d1460d76d465ded81b3ba1f6302847dd1164736f6c634300081c0033",
  "linkReferences": {},
  "deployedLinkReferences": {}
}