{
  "_format": "hh-sol-artifact-1",
  "contractName": "TicketNFT",
  "sourceName": "contracts/TicketNFT.sol",
  "abi": [
    {
      "inputs": [
        {
          "internalType": "string",
          "name": "_name",
          "type": "string"
        },
        {
          "internalType": "string",
          "name": "_symbol",
          "type": "string"
        },
        {
          "internalType": "address",
          "name": "initialOwner",
          "type": "address"
        }
      ],
      "stateMutability": "nonpayable",
      "type": "constructor"
    },
    {
      "inputs": [
        {
          "internalType": "address",
          "name": "sender",
          "type": "address"
        },
        {
          "internalType": "uint256",
          "name": "tokenId",
          "type": "uint256"
        },
        {
          "internalType": "address",
          "name": "owner",
          "type": "address"
        }
      ],
      "name": "ERC721IncorrectOwner",
      "type": "error"
    },
    {
      "inputs": [
        {
          "internalType": "address",
          "name": "operator",
          "type": "address"
        },
        {
          "internalType": "uint256",
          "name": "tokenId",
          "type": "uint256"
        }
      ],
      "name": "ERC721InsufficientApproval",
      "type": "error"
    },
    {
      "inputs": [
        {
          "internalType": "address",
          "name": "approver",
          "type": "address"
        }
      ],
      "name": "ERC721InvalidApprover",
      "type": "error"
    },
    {
      "inputs": [
        {
          "internalType": "address",
          "name": "operator",
          "type": "address"
        }
      ],
      "name": "ERC721InvalidOperator",
      "type": "error"
    },
    {
      "inputs": [
        {
          "internalType": "address",
          "name": "owner",
          "type": "address"
        }
      ],
      "name": "ERC721InvalidOwner",
      "type": "error"
    },
    {
      "inputs": [
        {
          "internalType": "address",
          "name": "receiver",
          "type": "address"
        }
      ],
      "name": "ERC721InvalidReceiver",
      "type": "error"
    },
    {
      "inputs": [
        {
          "internalType": "address",
          "name": "sender",
          "type": "address"
        }
      ],
      "name": "ERC721InvalidSender",
      "type": "error"
    },
    {
      "inputs": [
        {
          "internalType": "uint256",
          "name": "tokenId",
          "type": "uint256"
        }
      ],
      "name": "ERC721NonexistentToken",
      "type": "error"
    },
    {
      "inputs": [
        {
          "internalType": "address",
          "name": "owner",
          "type": "address"
        }
      ],
      "name": "OwnableInvalidOwner",
      "type": "error"
    },
    {
      "inputs": [
        {
          "internalType": "address",
          "name": "account",
          "type": "address"
        }
      ],
      "name": "OwnableUnauthorizedAccount",
      "type": "error"
    },
    {
      "anonymous": false,
      "inputs": [
        {
          "indexed": true,
          "internalType": "address",
          "name": "owner",
          "type": "address"
        },
        {
          "indexed": true,
          "internalType": "address",
          "name": "approved",
          "type": "address"
        },
        {
          "indexed": true,
          "internalType": "uint256",
          "name": "tokenId",
          "type": "uint256"
        }
      ],
      "name": "Approval",
      "type": "event"
    },
    {
      "anonymous": false,
      "inputs": [
        {
          "indexed": true,
          "internalType": "address",
          "name": "owner",
          "type": "address"
        },
        {
          "indexed": true,
          "internalType": "address",
          "name": "operator",
          "type": "address"
        },
        {
          "indexed": false,
          "internalType": "bool",
          "name": "approved",
          "type": "bool"
        }
      ],
      "name": "ApprovalForAll",
      "type": "event"
    },
    {
      "anonymous": false,
      "inputs": [
        {
          "indexed": true,
          "internalType": "address",
          "name": "previousOwner",
          "type": "address"
        },
        {
          "indexed": true,
          "internalType": "address",
          "name": "newOwner",
          "type": "address"
        }
      ],
      "name": "OwnershipTransferred",
      "type": "event"
    },
    {
      "anonymous": false,
      "inputs": [
        {
          "indexed": true,
          "internalType": "address",
          "name": "from",
          "type": "address"
        },
        {
          "indexed": true,
          "internalType": "address",
          "name": "to",
          "type": "address"
        },
        {
          "indexed": true,
          "internalType": "uint256",
          "name": "tokenId",
          "type": "uint256"
        }
      ],
      "name": "Transfer",
      "type": "event"
    },
    {
      "inputs": [
        {
          "internalType": "address",
          "name": "to",
          "type": "address"
        },
        {
          "internalType": "uint256",
          "name": "tokenId",
          "type": "uint256"
        }
      ],
      "name": "approve",
      "outputs": [],
      "stateMutability": "nonpayable",
      "type": "function"
    },
    {
      "inputs": [
        {
          "internalType": "address",
          "name": "owner",
          "type": "address"
        }
      ],
      "name": "balanceOf",
      "outputs": [
        {
          "internalType": "uint256",
          "name": "",
          "type": "uint256"
        }
      ],
      "stateMutability": "view",
      "type": "function"
    },
    {
      "inputs": [
        {
          "internalType": "uint256",
          "name": "tokenId",
          "type": "uint256"
        }
      ],
      "name": "getApproved",
      "outputs": [
        {
          "internalType": "address",
          "name": "",
          "type": "address"
        }
      ],
      "stateMutability": "view",
      "type": "function"
    },
    {
      "inputs": [
        {
          "internalType": "address",
          "name": "owner",
          "type": "address"
        },
        {
          "internalType": "address",
          "name": "operator",
          "type": "address"
        }
      ],
      "name": "isApprovedForAll",
      "outputs": [
        {
          "internalType": "bool",
          "name": "",
          "type": "bool"
        }
      ],
      "stateMutability": "view",
      "type": "function"
    },
    {
      "inputs": [
        {
          "internalType": "address",
          "name": "_to",
          "type": "address"
        },
        {
          "internalType": "uint256",
          "name": "_eventId",
          "type": "uint256"
        },
        {
          "internalType": "uint256",
          "name": "_originalPrice",
          "type": "uint256"
        }
      ],
      "name": "mintTicket",
      "outputs": [
        {
          "internalType": "uint256",
          "name": "",
          "type": "uint256"
        }
      ],
      "stateMutability": "nonpayable",
      "type": "function"
    },
    {
      "inputs": [],
      "name": "name",
      "outputs": [
        {
          "internalType": "string",
          "name": "",
          "type": "string"
        }
      ],
      "stateMutability": "view",
      "type": "function"
    },
    {
      "inputs": [],
      "name": "owner",
      "outputs": [
        {
          "internalType": "address",
          "name": "",
          "type": "address"
        }
      ],
      "stateMutability": "view",
      "type": "function"
    },
    {
      "inputs": [
        {
          "internalType": "uint256",
          "name": "tokenId",
          "type": "uint256"
        }
      ],
      "name": "ownerOf",
      "outputs": [
        {
          "internalType": "address",
          "name": "",
          "type": "address"
        }
      ],
      "stateMutability": "view",
      "type": "function"
    },
    {
      "inputs": [],
      "name": "renounceOwnership",
      "outputs": [],
      "stateMutability": "nonpayable",
      "type": "function"
    },
    {
      "inputs": [
        {
          "internalType": "address",
          "name": "from",
          "type": "address"
        },
        {
          "internalType": "address",
          "name": "to",
          "type": "address"
        },
        {
          "internalType": "uint256",
          "name": "tokenId",
          "type": "uint256"
        }
      ],
      "name": "safeTransferFrom",
      "outputs": [],
      "stateMutability": "nonpayable",
      "type": "function"
    },
    {
      "inputs": [
        {
          "internalType": "address",
          "name": "from",
          "type": "address"
        },
        {
          "internalType": "address",
          "name": "to",
          "type": "address"
        },
        {
          "internalType": "uint256",
          "name": "tokenId",
          "type": "uint256"
        },
        {
          "internalType": "bytes",
          "name": "data",
          "type": "bytes"
        }
      ],
      "name": "safeTransferFrom",
      "outputs": [],
      "stateMutability": "nonpayable",
      "type": "function"
    },
    {
      "inputs": [
        {
          "internalType": "address",
          "name": "operator",
          "type": "address"
        },
        {
          "internalType": "bool",
          "name": "approved",
          "type": "bool"
        }
      ],
      "name": "setApprovalForAll",
      "outputs": [],
      "stateMutability": "nonpayable",
      "type": "function"
    },
    {
      "inputs": [
        {
          "internalType": "bytes4",
          "name": "interfaceId",
          "type": "bytes4"
        }
      ],
      "name": "supportsInterface",
      "outputs": [
        {
          "internalType": "bool",
          "name": "",
          "type": "bool"
        }
      ],
      "stateMutability": "view",
      "type": "function"
    },
    {
      "inputs": [],
      "name": "symbol",
      "outputs": [
        {
          "internalType": "string",
          "name": "",
          "type": "string"
        }
      ],
      "stateMutability": "view",
      "type": "function"
    },
    {
      "inputs": [
        {
          "internalType": "uint256",
          "name": "",
          "type": "uint256"
        }
      ],
      "name": "ticketData",
      "outputs": [
        {
          "internalType": "uint256",
          "name": "eventId",
          "type": "uint256"
        },
        {
          "internalType": "uint256",
          "name": "originalPrice",
          "type": "uint256"
        },
        {
          "internalType": "uint256",
          "name": "issuanceDate",
          "type": "uint256"
        }
      ],
      "stateMutability": "view",
      "type": "function"
    },
    {
      "inputs": [
        {
          "internalType": "uint256",
          "name": "tokenId",
          "type": "uint256"
        }
      ],
      "name": "tokenURI",
      "outputs": [
        {
          "internalType": "string",
          "name": "",
          "type": "string"
        }
      ],
      "stateMutability": "view",
      "type": "function"
    },
    {
      "inputs": [
        {
          "internalType": "address",
          "name": "from",
          "type": "address"
        },
        {
          "internalType": "address",
          "name": "to",
          "type": "address"
        },
        {
          "internalType": "uint256",
          "name": "tokenId",
          "type": "uint256"
        }
      ],
      "name": "transferFrom",
      "outputs": [],
      "stateMutability": "nonpayable",
      "type": "function"
    },
    {
      "inputs": [
        {
          "internalType": "address",
          "name": "newOwner",
          "type": "address"
        }
      ],
      "name": "transferOwnership",
      "outputs": [],
      "stateMutability": "nonpayable",
      "type": "function"
    }
  ],
  "bytecode": "0x608060405234801561001057600080fd5b5060405161295e38038061295e8339818101604052810190610032919061037a565b80838381600090816100449190610626565b5080600190816100549190610626565b505050600073ffffffffffffffffffffffffffffffffffffffff168173ffffffffffffffffffffffffffffffffffffffff16036100c95760006040517f1e4fbdf70000000000000000000000000000000000000000000000000000000081526004016100c09190610707565b60405180910390fd5b6100d8816100e160201b60201c565b50505050610722565b6000600660009054906101000a900473ffffffffffffffffffffffffffffffffffffffff16905081600660006101000a81548173ffffffffffffffffffffffffffffffffffffffff021916908373ffffffffffffffffffffffffffffffffffffffff1602179055508173ffffffffffffffffffffffffffffffffffffffff168173ffffffffffffffffffffffffffffffffffffffff167f8be0079c531659141344cd1fd0a4f28419497f9722a3daafe3b4186f6b6457e060405160405180910390a35050565b6000604051905090565b600080fd5b600080fd5b600080fd5b600080fd5b6000601f19601f8301169050919050565b7f4e487b7100000000000000000000000000000000000000000000000000000000600052604160045260246000fd5b61020e826101c5565b810181811067ffffffffffffffff8211171561022d5761022c6101d6565b5b80604052505050565b60006102406101a7565b905061024c8282610205565b919050565b600067ffffffffffffffff82111561026c5761026b6101d6565b5b610275826101c5565b9050602081019050919050565b60005b838110156102a0578082015181840152602081019050610285565b60008484015250505050565b60006102bf6102ba84610251565b610236565b9050828152602081018484840111156102db576102da6101c0565b5b6102e6848285610282565b509392505050565b600082601f830112610303576103026101bb565b5b81516103138482602086016102ac565b91505092915050565b600073ffffffffffffffffffffffffffffffffffffffff82169050919050565b60006103478261031c565b9050919050565b6103578161033c565b811461036257600080fd5b50565b6000815190506103748161034e565b92915050565b600080600060608486031215610393576103926101b1565b5b600084015167ffffffffffffffff8111156103b1576103b06101b6565b5b6103bd868287016102ee565b935050602084015167ffffffffffffffff8111156103de576103dd6101b6565b5b6103ea868287016102ee565b92505060406103fb86828701610365565b9150509250925092565b600081519050919050565b7f4e487b7100000000000000000000000000000000000000000000000000000000600052602260045260246000fd5b6000600282049050600182168061045757607f821691505b60208210810361046a57610469610410565b5b50919050565b60008190508160005260206000209050919050565b60006020601f8301049050919050565b600082821b905092915050565b6000600883026104d27fffffffffffffffffffffffffffffffffffffffffffffffffffffffffffffffff82610495565b6104dc8683610495565b95508019841693508086168417925050509392505050565b6000819050919050565b6000819050919050565b600061052361051e610519846104f4565b6104fe565b6104f4565b9050919050565b6000819050919050565b61053d83610508565b6105516105498261052a565b8484546104a2565b825550505050565b600090565b610566610559565b610571818484610534565b505050565b5b818110156105955761058a60008261055e565b600181019050610577565b5050565b601f8211156105da576105ab81610470565b6105b484610485565b810160208510156105c3578190505b6105d76105cf85610485565b830182610576565b50505b505050565b600082821c905092915050565b60006105fd600019846008026105df565b1980831691505092915050565b600061061683836105ec565b9150826002028217905092915050565b61062f82610405565b67ffffffffffffffff811115610648576106476101d6565b5b610652825461043f565b61065d828285610599565b600060209050601f831160018114610690576000841561067e578287015190505b610688858261060a565b8655506106f0565b601f19841661069e86610470565b60005b828110156106c6578489015182556001820191506020850194506020810190506106a1565b868310156106e357848901516106df601f8916826105ec565b8355505b6001600288020188555050505b505050505050565b6107018161033c565b82525050565b600060208201905061071c60008301846106f8565b92915050565b61222d806107316000396000f3fe608060405234801561001057600080fd5b50600436106101165760003560e01c8063715018a6116100a2578063b88d4fde11610071578063b88d4fde146102e1578063c87b56dd146102fd578063e870cb661461032d578063e985e9c51461035d578063f2fde38b1461038d57610116565b8063715018a61461027f5780638da5cb5b1461028957806395d89b41146102a7578063a22cb465146102c557610116565b806323b872dd116100e957806323b872dd146101b5578063394803fd146101d157806342842e0e146102035780636352211e1461021f57806370a082311461024f57610116565b806301ffc9a71461011b57806306fdde031461014b578063081812fc14610169578063095ea7b314610199575b600080fd5b61013560048036038101906101309190611976565b6103a9565b60405161014291906119be565b60405180910390f35b61015361048b565b6040516101609190611a69565b60405180910390f35b610183600480360381019061017e9190611ac1565b61051d565b6040516101909190611b2f565b60405180910390f35b6101b360048036038101906101ae9190611b76565b610539565b005b6101cf60048036038101906101ca9190611bb6565b61054f565b005b6101eb60048036038101906101e69190611ac1565b610651565b6040516101fa93929190611c18565b60405180910390f35b61021d60048036038101906102189190611bb6565b61067b565b005b61023960048036038101906102349190611ac1565b61069b565b6040516102469190611b2f565b60405180910390f35b61026960048036038101906102649190611c4f565b6106ad565b6040516102769190611c7c565b60405180910390f35b610287610767565b005b61029161077b565b60405161029e9190611b2f565b60405180910390f35b6102af6107a5565b6040516102bc9190611a69565b60405180910390f35b6102df60048036038101906102da9190611cc3565b610837565b005b6102fb60048036038101906102f69190611e38565b61084d565b005b61031760048036038101906103129190611ac1565b610872565b6040516103249190611a69565b60405180910390f35b61034760048036038101906103429190611ebb565b6108db565b6040516103549190611c7c565b60405180910390f35b61037760048036038101906103729190611f0e565b610968565b60405161038491906119be565b60405180910390f35b6103a760048036038101906103a29190611c4f565b6109fc565b005b60007f80ac58cd000000000000000000000000000000000000000000000000000000007bffffffffffffffffffffffffffffffffffffffffffffffffffffffff1916827bffffffffffffffffffffffffffffffffffffffffffffffffffffffff1916148061047457507f5b5e139f000000000000000000000000000000000000000000000000000000007bffffffffffffffffffffffffffffffffffffffffffffffffffffffff1916827bffffffffffffffffffffffffffffffffffffffffffffffffffffffff1916145b80610484575061048382610a82565b5b9050919050565b60606000805461049a90611f7d565b80601f01602080910402602001604051908101604052809291908181526020018280546104c690611f7d565b80156105135780601f106104e857610100808354040283529160200191610513565b820191906000526020600020905b8154815290600101906020018083116104f657829003601f168201915b5050505050905090565b600061052882610aec565b5061053282610b74565b9050919050565b61054b8282610546610bb1565b610bb9565b5050565b600073ffffffffffffffffffffffffffffffffffffffff168273ffffffffffffffffffffffffffffffffffffffff16036105c15760006040517f64a0ae920000000000000000000000000000000000000000000000000000000081526004016105b89190611b2f565b60405180910390fd5b60006105d583836105d0610bb1565b610bcb565b90508373ffffffffffffffffffffffffffffffffffffffff168173ffffffffffffffffffffffffffffffffffffffff161461064b578382826040517f64283d7b00000000000000000000000000000000000000000000000000000000815260040161064293929190611fae565b60405180910390fd5b50505050565b60086020528060005260406000206000915090508060000154908060010154908060020154905083565b6106968383836040518060200160405280600081525061084d565b505050565b60006106a682610aec565b9050919050565b60008073ffffffffffffffffffffffffffffffffffffffff168273ffffffffffffffffffffffffffffffffffffffff16036107205760006040517f89c62b640000000000000000000000000000000000000000000000000000000081526004016107179190611b2f565b60405180910390fd5b600360008373ffffffffffffffffffffffffffffffffffffffff1673ffffffffffffffffffffffffffffffffffffffff168152602001908152602001600020549050919050565b61076f610de5565b6107796000610e6c565b565b6000600660009054906101000a900473ffffffffffffffffffffffffffffffffffffffff16905090565b6060600180546107b490611f7d565b80601f01602080910402602001604051908101604052809291908181526020018280546107e090611f7d565b801561082d5780601f106108025761010080835404028352916020019161082d565b820191906000526020600020905b81548152906001019060200180831161081057829003601f168201915b5050505050905090565b610849610842610bb1565b8383610f32565b5050565b61085884848461054f565b61086c610863610bb1565b858585856110a1565b50505050565b606061087d82610aec565b506000610888611252565b905060008151116108a857604051806020016040528060008152506108d3565b806108b284611269565b6040516020016108c3929190612021565b6040516020818303038152906040525b915050919050565b60006108e5610de5565b60006007549050600760008154809291906108ff90612074565b919050555061090e8582611337565b60405180606001604052808581526020018481526020014281525060086000838152602001908152602001600020600082015181600001556020820151816001015560408201518160020155905050809150509392505050565b6000600560008473ffffffffffffffffffffffffffffffffffffffff1673ffffffffffffffffffffffffffffffffffffffff16815260200190815260200160002060008373ffffffffffffffffffffffffffffffffffffffff1673ffffffffffffffffffffffffffffffffffffffff16815260200190815260200160002060009054906101000a900460ff16905092915050565b610a04610de5565b600073ffffffffffffffffffffffffffffffffffffffff168173ffffffffffffffffffffffffffffffffffffffff1603610a765760006040517f1e4fbdf7000000000000000000000000000000000000000000000000000000008152600401610a6d9190611b2f565b60405180910390fd5b610a7f81610e6c565b50565b60007f01ffc9a7000000000000000000000000000000000000000000000000000000007bffffffffffffffffffffffffffffffffffffffffffffffffffffffff1916827bffffffffffffffffffffffffffffffffffffffffffffffffffffffff1916149050919050565b600080610af883611430565b9050600073ffffffffffffffffffffffffffffffffffffffff168173ffffffffffffffffffffffffffffffffffffffff1603610b6b57826040517f7e273289000000000000000000000000000000000000000000000000000000008152600401610b629190611c7c565b60405180910390fd5b80915050919050565b60006004600083815260200190815260200160002060009054906101000a900473ffffffffffffffffffffffffffffffffffffffff169050919050565b600033905090565b610bc6838383600161146d565b505050565b600080610bd784611430565b9050600073ffffffffffffffffffffffffffffffffffffffff168373ffffffffffffffffffffffffffffffffffffffff1614610c1957610c18818486611632565b5b600073ffffffffffffffffffffffffffffffffffffffff168173ffffffffffffffffffffffffffffffffffffffff1614610caa57610c5b60008560008061146d565b6001600360008373ffffffffffffffffffffffffffffffffffffffff1673ffffffffffffffffffffffffffffffffffffffff168152602001908152602001600020600082825403925050819055505b600073ffffffffffffffffffffffffffffffffffffffff168573ffffffffffffffffffffffffffffffffffffffff1614610d2d576001600360008773ffffffffffffffffffffffffffffffffffffffff1673ffffffffffffffffffffffffffffffffffffffff168152602001908152602001600020600082825401925050819055505b846002600086815260200190815260200160002060006101000a81548173ffffffffffffffffffffffffffffffffffffffff021916908373ffffffffffffffffffffffffffffffffffffffff160217905550838573ffffffffffffffffffffffffffffffffffffffff168273ffffffffffffffffffffffffffffffffffffffff167fddf252ad1be2c89b69c2b068fc378daa952ba7f163c4a11628f55a4df523b3ef60405160405180910390a4809150509392505050565b610ded610bb1565b73ffffffffffffffffffffffffffffffffffffffff16610e0b61077b565b73ffffffffffffffffffffffffffffffffffffffff1614610e6a57610e2e610bb1565b6040517f118cdaa7000000000000000000000000000000000000000000000000000000008152600401610e619190611b2f565b60405180910390fd5b565b6000600660009054906101000a900473ffffffffffffffffffffffffffffffffffffffff16905081600660006101000a81548173ffffffffffffffffffffffffffffffffffffffff021916908373ffffffffffffffffffffffffffffffffffffffff1602179055508173ffffffffffffffffffffffffffffffffffffffff168173ffffffffffffffffffffffffffffffffffffffff167f8be0079c531659141344cd1fd0a4f28419497f9722a3daafe3b4186f6b6457e060405160405180910390a35050565b600073ffffffffffffffffffffffffffffffffffffffff168273ffffffffffffffffffffffffffffffffffffffff1603610fa357816040517f5b08ba18000000000000000000000000000000000000000000000000000000008152600401610f9a9190611b2f565b60405180910390fd5b80600560008573ffffffffffffffffffffffffffffffffffffffff1673ffffffffffffffffffffffffffffffffffffffff16815260200190815260200160002060008473ffffffffffffffffffffffffffffffffffffffff1673ffffffffffffffffffffffffffffffffffffffff16815260200190815260200160002060006101000a81548160ff0219169083151502179055508173ffffffffffffffffffffffffffffffffffffffff168373ffffffffffffffffffffffffffffffffffffffff167f17307eab39ab6107e8899845ad3d59bd9653f200f220920489ca2b5937696c318360405161109491906119be565b60405180910390a3505050565b60008373ffffffffffffffffffffffffffffffffffffffff163b111561124b578273ffffffffffffffffffffffffffffffffffffffff1663150b7a02868685856040518563ffffffff1660e01b81526004016111009493929190612111565b6020604051808303816000875af192505050801561113c57506040513d601f19601f820116820180604052508101906111399190612172565b60015b6111c0573d806000811461116c576040519150601f19603f3d011682016040523d82523d6000602084013e611171565b606091505b5060008151036111b857836040517f64a0ae920000000000000000000000000000000000000000000000000000000081526004016111af9190611b2f565b60405180910390fd5b805181602001fd5b63150b7a0260e01b7bffffffffffffffffffffffffffffffffffffffffffffffffffffffff1916817bffffffffffffffffffffffffffffffffffffffffffffffffffffffff19161461124957836040517f64a0ae920000000000000000000000000000000000000000000000000000000081526004016112409190611b2f565b60405180910390fd5b505b5050505050565b606060405180602001604052806000815250905090565b606060006001611278846116f6565b01905060008167ffffffffffffffff81111561129757611296611d0d565b5b6040519080825280601f01601f1916602001820160405280156112c95781602001600182028036833780820191505090505b509050600082602001820190505b60011561132c578080600190039150507f3031323334353637383961626364656600000000000000000000000000000000600a86061a8153600a85816113205761131f61219f565b5b049450600085036112d7575b819350505050919050565b600073ffffffffffffffffffffffffffffffffffffffff168273ffffffffffffffffffffffffffffffffffffffff16036113a95760006040517f64a0ae920000000000000000000000000000000000000000000000000000000081526004016113a09190611b2f565b60405180910390fd5b60006113b783836000610bcb565b9050600073ffffffffffffffffffffffffffffffffffffffff168173ffffffffffffffffffffffffffffffffffffffff161461142b5760006040517f73c6ac6e0000000000000000000000000000000000000000000000000000000081526004016114229190611b2f565b60405180910390fd5b505050565b60006002600083815260200190815260200160002060009054906101000a900473ffffffffffffffffffffffffffffffffffffffff169050919050565b80806114a65750600073ffffffffffffffffffffffffffffffffffffffff168273ffffffffffffffffffffffffffffffffffffffff1614155b156115da5760006114b684610aec565b9050600073ffffffffffffffffffffffffffffffffffffffff168373ffffffffffffffffffffffffffffffffffffffff161415801561152157508273ffffffffffffffffffffffffffffffffffffffff168173ffffffffffffffffffffffffffffffffffffffff1614155b801561153457506115328184610968565b155b1561157657826040517fa9fbf51f00000000000000000000000000000000000000000000000000000000815260040161156d9190611b2f565b60405180910390fd5b81156115d857838573ffffffffffffffffffffffffffffffffffffffff168273ffffffffffffffffffffffffffffffffffffffff167f8c5be1e5ebec7d5bd14f71427d1e84f3dd0314c0f7b2291e5b200ac8c7c3b92560405160405180910390a45b505b836004600085815260200190815260200160002060006101000a81548173ffffffffffffffffffffffffffffffffffffffff021916908373ffffffffffffffffffffffffffffffffffffffff16021790555050505050565b61163d838383611849565b6116f157600073ffffffffffffffffffffffffffffffffffffffff168373ffffffffffffffffffffffffffffffffffffffff16036116b257806040517f7e2732890000000000000000000000000000000000000000000000000000000081526004016116a99190611c7c565b60405180910390fd5b81816040517f177e802f0000000000000000000000000000000000000000000000000000000081526004016116e89291906121ce565b60405180910390fd5b505050565b600080600090507a184f03e93ff9f4daa797ed6e38ed64bf6a1f0100000000000000008310611754577a184f03e93ff9f4daa797ed6e38ed64bf6a1f010000000000000000838161174a5761174961219f565b5b0492506040810190505b6d04ee2d6d415b85acef81000000008310611791576d04ee2d6d415b85acef810000000083816117875761178661219f565b5b0492506020810190505b662386f26fc1000083106117c057662386f26fc1000083816117b6576117b561219f565b5b0492506010810190505b6305f5e10083106117e9576305f5e10083816117df576117de61219f565b5b0492506008810190505b612710831061180e5761271083816118045761180361219f565b5b0492506004810190505b6064831061183157606483816118275761182661219f565b5b0492506002810190505b600a8310611840576001810190505b80915050919050565b60008073ffffffffffffffffffffffffffffffffffffffff168373ffffffffffffffffffffffffffffffffffffffff161415801561190157508273ffffffffffffffffffffffffffffffffffffffff168473ffffffffffffffffffffffffffffffffffffffff1614806118c257506118c18484610968565b5b8061190057508273ffffffffffffffffffffffffffffffffffffffff166118e883610b74565b73ffffffffffffffffffffffffffffffffffffffff16145b5b90509392505050565b6000604051905090565b600080fd5b600080fd5b60007fffffffff0000000000000000000000000000000000000000000000000000000082169050919050565b6119538161191e565b811461195e57600080fd5b50565b6000813590506119708161194a565b92915050565b60006020828403121561198c5761198b611914565b5b600061199a84828501611961565b91505092915050565b60008115159050919050565b6119b8816119a3565b82525050565b60006020820190506119d360008301846119af565b92915050565b600081519050919050565b600082825260208201905092915050565b60005b83811015611a135780820151818401526020810190506119f8565b60008484015250505050565b6000601f19601f8301169050919050565b6000611a3b826119d9565b611a4581856119e4565b9350611a558185602086016119f5565b611a5e81611a1f565b840191505092915050565b60006020820190508181036000830152611a838184611a30565b905092915050565b6000819050919050565b611a9e81611a8b565b8114611aa957600080fd5b50565b600081359050611abb81611a95565b92915050565b600060208284031215611ad757611ad6611914565b5b6000611ae584828501611aac565b91505092915050565b600073ffffffffffffffffffffffffffffffffffffffff82169050919050565b6000611b1982611aee565b9050919050565b611b2981611b0e565b82525050565b6000602082019050611b446000830184611b20565b92915050565b611b5381611b0e565b8114611b5e57600080fd5b50565b600081359050611b7081611b4a565b92915050565b60008060408385031215611b8d57611b8c611914565b5b6000611b9b85828601611b61565b9250506020611bac85828601611aac565b9150509250929050565b600080600060608486031215611bcf57611bce611914565b5b6000611bdd86828701611b61565b9350506020611bee86828701611b61565b9250506040611bff86828701611aac565b9150509250925092565b611c1281611a8b565b82525050565b6000606082019050611c2d6000830186611c09565b611c3a6020830185611c09565b611c476040830184611c09565b949350505050565b600060208284031215611c6557611c64611914565b5b6000611c7384828501611b61565b91505092915050565b6000602082019050611c916000830184611c09565b92915050565b611ca0816119a3565b8114611cab57600080fd5b50565b600081359050611cbd81611c97565b92915050565b60008060408385031215611cda57611cd9611914565b5b6000611ce885828601611b61565b9250506020611cf985828601611cae565b9150509250929050565b600080fd5b600080fd5b7f4e487b7100000000000000000000000000000000000000000000000000000000600052604160045260246000fd5b611d4582611a1f565b810181811067ffffffffffffffff82111715611d6457611d63611d0d565b5b80604052505050565b6000611d7761190a565b9050611d838282611d3c565b919050565b600067ffffffffffffffff821115611da357611da2611d0d565b5b611dac82611a1f565b9050602081019050919050565b82818337600083830152505050565b6000611ddb611dd684611d88565b611d6d565b905082815260208101848484011115611df757611df6611d08565b5b611e02848285611db9565b509392505050565b600082601f830112611e1f57611e1e611d03565b5b8135611e2f848260208601611dc8565b91505092915050565b60008060008060808587031215611e5257611e51611914565b5b6000611e6087828801611b61565b9450506020611e7187828801611b61565b9350506040611e8287828801611aac565b925050606085013567ffffffffffffffff811115611ea357611ea2611919565b5b611eaf87828801611e0a565b91505092959194509250565b600080600060608486031215611ed457611ed3611914565b5b6000611ee286828701611b61565b9350506020611ef386828701611aac565b9250506040611f0486828701611aac565b9150509250925092565b60008060408385031215611f2557611f24611914565b5b6000611f3385828601611b61565b9250506020611f4485828601611b61565b9150509250929050565b7f4e487b7100000000000000000000000000000000000000000000000000000000600052602260045260246000fd5b60006002820490506001821680611f9557607f821691505b602082108103611fa857611fa7611f4e565b5b50919050565b6000606082019050611fc36000830186611b20565b611fd06020830185611c09565b611fdd6040830184611b20565b949350505050565b600081905092915050565b6000611ffb826119d9565b6120058185611fe5565b93506120158185602086016119f5565b80840191505092915050565b600061202d8285611ff0565b91506120398284611ff0565b91508190509392505050565b7f4e487b7100000000000000000000000000000000000000000000000000000000600052601160045260246000fd5b600061207f82611a8b565b91507fffffffffffffffffffffffffffffffffffffffffffffffffffffffffffffffff82036120b1576120b0612045565b5b600182019050919050565b600081519050919050565b600082825260208201905092915050565b60006120e3826120bc565b6120ed81856120c7565b93506120fd8185602086016119f5565b61210681611a1f565b840191505092915050565b60006080820190506121266000830187611b20565b6121336020830186611b20565b6121406040830185611c09565b818103606083015261215281846120d8565b905095945050505050565b60008151905061216c8161194a565b92915050565b60006020828403121561218857612187611914565b5b60006121968482850161215d565b91505092915050565b7f4e487b7100000000000000000000000000000000000000000000000000000000600052601260045260246000fd5b60006040820190506121e36000830185611b20565b6121f06020830184611c09565b939250505056fea264697066735822122047fb3d7314a02ee936a4042cd56ff835ce78dd763a0c555b6c6d8e55473a134c64736f6c634300081c0033",
  "linkReferences": {},
  "deployedLinkReferences": {}
}