{
  "_format": "hh-sol-artifact-1",
  "contractName": "TicketNFT",
  "sourceName": "contracts/TicketNFT.sol",
  "abi": [
    {
      "inputs": [
        {
          "internalType": "string",
          "name": "_name",
          "type": "string"
        },
        {
          "internalType": "string",
          "name": "_symbol",
          "type": "string"
        },
        {
          "internalType": "address",
          "name": "_initialOwner",
          "type": "address"
        },
        {
          "internalType": "address",
          "name": "_marketplaceAddress",
          "type": "address"
        }
      ],
      "stateMutability": "nonpayable",
      "type": "constructor"
    },
    {
      "inputs": [
        {
          "internalType": "address",
          "name": "sender",
          "type": "address"
        },
        {
          "internalType": "uint256",
          "name": "tokenId",
          "type": "uint256"
        },
        {
          "internalType": "address",
          "name": "owner",
          "type": "address"
        }
      ],
      "name": "ERC721IncorrectOwner",
      "type": "error"
    },
    {
      "inputs": [
        {
          "internalType": "address",
          "name": "operator",
          "type": "address"
        },
        {
          "internalType": "uint256",
          "name": "tokenId",
          "type": "uint256"
        }
      ],
      "name": "ERC721InsufficientApproval",
      "type": "error"
    },
    {
      "inputs": [
        {
          "internalType": "address",
          "name": "approver",
          "type": "address"
        }
      ],
      "name": "ERC721InvalidApprover",
      "type": "error"
    },
    {
      "inputs": [
        {
          "internalType": "address",
          "name": "operator",
          "type": "address"
        }
      ],
      "name": "ERC721InvalidOperator",
      "type": "error"
    },
    {
      "inputs": [
        {
          "internalType": "address",
          "name": "owner",
          "type": "address"
        }
      ],
      "name": "ERC721InvalidOwner",
      "type": "error"
    },
    {
      "inputs": [
        {
          "internalType": "address",
          "name": "receiver",
          "type": "address"
        }
      ],
      "name": "ERC721InvalidReceiver",
      "type": "error"
    },
    {
      "inputs": [
        {
          "internalType": "address",
          "name": "sender",
          "type": "address"
        }
      ],
      "name": "ERC721InvalidSender",
      "type": "error"
    },
    {
      "inputs": [
        {
          "internalType": "uint256",
          "name": "tokenId",
          "type": "uint256"
        }
      ],
      "name": "ERC721NonexistentToken",
      "type": "error"
    },
    {
      "inputs": [
        {
          "internalType": "address",
          "name": "owner",
          "type": "address"
        }
      ],
      "name": "OwnableInvalidOwner",
      "type": "error"
    },
    {
      "inputs": [
        {
          "internalType": "address",
          "name": "account",
          "type": "address"
        }
      ],
      "name": "OwnableUnauthorizedAccount",
      "type": "error"
    },
    {
      "anonymous": false,
      "inputs": [
        {
          "indexed": true,
          "internalType": "address",
          "name": "owner",
          "type": "address"
        },
        {
          "indexed": true,
          "internalType": "address",
          "name": "approved",
          "type": "address"
        },
        {
          "indexed": true,
          "internalType": "uint256",
          "name": "tokenId",
          "type": "uint256"
        }
      ],
      "name": "Approval",
      "type": "event"
    },
    {
      "anonymous": false,
      "inputs": [
        {
          "indexed": true,
          "internalType": "address",
          "name": "owner",
          "type": "address"
        },
        {
          "indexed": true,
          "internalType": "address",
          "name": "operator",
          "type": "address"
        },
        {
          "indexed": false,
          "internalType": "bool",
          "name": "approved",
          "type": "bool"
        }
      ],
      "name": "ApprovalForAll",
      "type": "event"
    },
    {
      "anonymous": false,
      "inputs": [
        {
          "indexed": true,
          "internalType": "uint256",
          "name": "eventId",
          "type": "uint256"
        },
        {
          "indexed": true,
          "internalType": "address",
          "name": "creatorAddress",
          "type": "address"
        },
        {
          "indexed": false,
          "internalType": "uint256",
          "name": "originalPrice",
          "type": "uint256"
        }
      ],
      "name": "EventRegistered",
      "type": "event"
    },
    {
      "anonymous": false,
      "inputs": [
        {
          "indexed": true,
          "internalType": "address",
          "name": "previousOwner",
          "type": "address"
        },
        {
          "indexed": true,
          "internalType": "address",
          "name": "newOwner",
          "type": "address"
        }
      ],
      "name": "OwnershipTransferred",
      "type": "event"
    },
    {
      "anonymous": false,
      "inputs": [
        {
          "indexed": true,
          "internalType": "address",
          "name": "from",
          "type": "address"
        },
        {
          "indexed": true,
          "internalType": "address",
          "name": "to",
          "type": "address"
        },
        {
          "indexed": true,
          "internalType": "uint256",
          "name": "tokenId",
          "type": "uint256"
        }
      ],
      "name": "Transfer",
      "type": "event"
    },
    {
      "inputs": [
        {
          "internalType": "address",
          "name": "to",
          "type": "address"
        },
        {
          "internalType": "uint256",
          "name": "tokenId",
          "type": "uint256"
        }
      ],
      "name": "approve",
      "outputs": [],
      "stateMutability": "nonpayable",
      "type": "function"
    },
    {
      "inputs": [
        {
          "internalType": "address",
          "name": "owner",
          "type": "address"
        }
      ],
      "name": "balanceOf",
      "outputs": [
        {
          "internalType": "uint256",
          "name": "",
          "type": "uint256"
        }
      ],
      "stateMutability": "view",
      "type": "function"
    },
    {
      "inputs": [
        {
          "internalType": "uint256",
          "name": "_eventId",
          "type": "uint256"
        }
      ],
      "name": "buyAndMintTicket",
      "outputs": [],
      "stateMutability": "payable",
      "type": "function"
    },
    {
      "inputs": [
        {
          "internalType": "uint256",
          "name": "",
          "type": "uint256"
        }
      ],
      "name": "eventCreators",
      "outputs": [
        {
          "internalType": "address payable",
          "name": "",
          "type": "address"
        }
      ],
      "stateMutability": "view",
      "type": "function"
    },
    {
      "inputs": [
        {
          "internalType": "uint256",
          "name": "",
          "type": "uint256"
        }
      ],
      "name": "eventOriginalPrices",
      "outputs": [
        {
          "internalType": "uint256",
          "name": "",
          "type": "uint256"
        }
      ],
      "stateMutability": "view",
      "type": "function"
    },
    {
      "inputs": [
        {
          "internalType": "uint256",
          "name": "tokenId",
          "type": "uint256"
        }
      ],
      "name": "getApproved",
      "outputs": [
        {
          "internalType": "address",
          "name": "",
          "type": "address"
        }
      ],
      "stateMutability": "view",
      "type": "function"
    },
    {
      "inputs": [
        {
          "internalType": "address",
          "name": "owner",
          "type": "address"
        },
        {
          "internalType": "address",
          "name": "operator",
          "type": "address"
        }
      ],
      "name": "isApprovedForAll",
      "outputs": [
        {
          "internalType": "bool",
          "name": "",
          "type": "bool"
        }
      ],
      "stateMutability": "view",
      "type": "function"
    },
    {
      "inputs": [],
      "name": "marketplaceContract",
      "outputs": [
        {
          "internalType": "contract Marketplace",
          "name": "",
          "type": "address"
        }
      ],
      "stateMutability": "view",
      "type": "function"
    },
    {
      "inputs": [
        {
          "internalType": "address",
          "name": "_to",
          "type": "address"
        },
        {
          "internalType": "uint256",
          "name": "_eventId",
          "type": "uint256"
        },
        {
          "internalType": "uint256",
          "name": "_originalPrice",
          "type": "uint256"
        }
      ],
      "name": "mintTicket",
      "outputs": [
        {
          "internalType": "uint256",
          "name": "",
          "type": "uint256"
        }
      ],
      "stateMutability": "nonpayable",
      "type": "function"
    },
    {
      "inputs": [],
      "name": "name",
      "outputs": [
        {
          "internalType": "string",
          "name": "",
          "type": "string"
        }
      ],
      "stateMutability": "view",
      "type": "function"
    },
    {
      "inputs": [],
      "name": "owner",
      "outputs": [
        {
          "internalType": "address",
          "name": "",
          "type": "address"
        }
      ],
      "stateMutability": "view",
      "type": "function"
    },
    {
      "inputs": [
        {
          "internalType": "uint256",
          "name": "tokenId",
          "type": "uint256"
        }
      ],
      "name": "ownerOf",
      "outputs": [
        {
          "internalType": "address",
          "name": "",
          "type": "address"
        }
      ],
      "stateMutability": "view",
      "type": "function"
    },
    {
      "inputs": [
        {
          "internalType": "uint256",
          "name": "_eventId",
          "type": "uint256"
        },
        {
          "internalType": "address payable",
          "name": "_creatorAddress",
          "type": "address"
        },
        {
          "internalType": "uint256",
          "name": "_originalPrice",
          "type": "uint256"
        }
      ],
      "name": "registerEvent",
      "outputs": [],
      "stateMutability": "nonpayable",
      "type": "function"
    },
    {
      "inputs": [],
      "name": "renounceOwnership",
      "outputs": [],
      "stateMutability": "nonpayable",
      "type": "function"
    },
    {
      "inputs": [
        {
          "internalType": "address",
          "name": "from",
          "type": "address"
        },
        {
          "internalType": "address",
          "name": "to",
          "type": "address"
        },
        {
          "internalType": "uint256",
          "name": "tokenId",
          "type": "uint256"
        }
      ],
      "name": "safeTransferFrom",
      "outputs": [],
      "stateMutability": "nonpayable",
      "type": "function"
    },
    {
      "inputs": [
        {
          "internalType": "address",
          "name": "from",
          "type": "address"
        },
        {
          "internalType": "address",
          "name": "to",
          "type": "address"
        },
        {
          "internalType": "uint256",
          "name": "tokenId",
          "type": "uint256"
        },
        {
          "internalType": "bytes",
          "name": "data",
          "type": "bytes"
        }
      ],
      "name": "safeTransferFrom",
      "outputs": [],
      "stateMutability": "nonpayable",
      "type": "function"
    },
    {
      "inputs": [
        {
          "internalType": "address",
          "name": "operator",
          "type": "address"
        },
        {
          "internalType": "bool",
          "name": "approved",
          "type": "bool"
        }
      ],
      "name": "setApprovalForAll",
      "outputs": [],
      "stateMutability": "nonpayable",
      "type": "function"
    },
    {
      "inputs": [
        {
          "internalType": "address",
          "name": "_marketplaceAddress",
          "type": "address"
        }
      ],
      "name": "setMarketplaceAddress",
      "outputs": [],
      "stateMutability": "nonpayable",
      "type": "function"
    },
    {
      "inputs": [
        {
          "internalType": "bytes4",
          "name": "interfaceId",
          "type": "bytes4"
        }
      ],
      "name": "supportsInterface",
      "outputs": [
        {
          "internalType": "bool",
          "name": "",
          "type": "bool"
        }
      ],
      "stateMutability": "view",
      "type": "function"
    },
    {
      "inputs": [],
      "name": "symbol",
      "outputs": [
        {
          "internalType": "string",
          "name": "",
          "type": "string"
        }
      ],
      "stateMutability": "view",
      "type": "function"
    },
    {
      "inputs": [
        {
          "internalType": "uint256",
          "name": "",
          "type": "uint256"
        }
      ],
      "name": "ticketData",
      "outputs": [
        {
          "internalType": "uint256",
          "name": "eventId",
          "type": "uint256"
        },
        {
          "internalType": "uint256",
          "name": "originalPrice",
          "type": "uint256"
        },
        {
          "internalType": "uint256",
          "name": "issuanceDate",
          "type": "uint256"
        }
      ],
      "stateMutability": "view",
      "type": "function"
    },
    {
      "inputs": [
        {
          "internalType": "uint256",
          "name": "tokenId",
          "type": "uint256"
        }
      ],
      "name": "tokenURI",
      "outputs": [
        {
          "internalType": "string",
          "name": "",
          "type": "string"
        }
      ],
      "stateMutability": "view",
      "type": "function"
    },
    {
      "inputs": [
        {
          "internalType": "address",
          "name": "from",
          "type": "address"
        },
        {
          "internalType": "address",
          "name": "to",
          "type": "address"
        },
        {
          "internalType": "uint256",
          "name": "tokenId",
          "type": "uint256"
        }
      ],
      "name": "transferFrom",
      "outputs": [],
      "stateMutability": "nonpayable",
      "type": "function"
    },
    {
      "inputs": [
        {
          "internalType": "address",
          "name": "newOwner",
          "type": "address"
        }
      ],
      "name": "transferOwnership",
      "outputs": [],
      "stateMutability": "nonpayable",
      "type": "function"
    }
  ],
  "bytecode": "0x608060405234801561001057600080fd5b50604051613e31380380613e318339818101604052810190610032919061042b565b818484816000908161004491906106eb565b50806001908161005491906106eb565b505050600073ffffffffffffffffffffffffffffffffffffffff168173ffffffffffffffffffffffffffffffffffffffff16036100c95760006040517f1e4fbdf70000000000000000000000000000000000000000000000000000000081526004016100c091906107cc565b60405180910390fd5b6100d88161019260201b60201c565b50600073ffffffffffffffffffffffffffffffffffffffff168173ffffffffffffffffffffffffffffffffffffffff1603610148576040517f08c379a000000000000000000000000000000000000000000000000000000000815260040161013f9061086a565b60405180910390fd5b80600860006101000a81548173ffffffffffffffffffffffffffffffffffffffff021916908373ffffffffffffffffffffffffffffffffffffffff1602179055505050505061088a565b6000600660009054906101000a900473ffffffffffffffffffffffffffffffffffffffff16905081600660006101000a81548173ffffffffffffffffffffffffffffffffffffffff021916908373ffffffffffffffffffffffffffffffffffffffff1602179055508173ffffffffffffffffffffffffffffffffffffffff168173ffffffffffffffffffffffffffffffffffffffff167f8be0079c531659141344cd1fd0a4f28419497f9722a3daafe3b4186f6b6457e060405160405180910390a35050565b6000604051905090565b600080fd5b600080fd5b600080fd5b600080fd5b6000601f19601f8301169050919050565b7f4e487b7100000000000000000000000000000000000000000000000000000000600052604160045260246000fd5b6102bf82610276565b810181811067ffffffffffffffff821117156102de576102dd610287565b5b80604052505050565b60006102f1610258565b90506102fd82826102b6565b919050565b600067ffffffffffffffff82111561031d5761031c610287565b5b61032682610276565b9050602081019050919050565b60005b83811015610351578082015181840152602081019050610336565b60008484015250505050565b600061037061036b84610302565b6102e7565b90508281526020810184848401111561038c5761038b610271565b5b610397848285610333565b509392505050565b600082601f8301126103b4576103b361026c565b5b81516103c484826020860161035d565b91505092915050565b600073ffffffffffffffffffffffffffffffffffffffff82169050919050565b60006103f8826103cd565b9050919050565b610408816103ed565b811461041357600080fd5b50565b600081519050610425816103ff565b92915050565b6000806000806080858703121561044557610444610262565b5b600085015167ffffffffffffffff81111561046357610462610267565b5b61046f8782880161039f565b945050602085015167ffffffffffffffff8111156104905761048f610267565b5b61049c8782880161039f565b93505060406104ad87828801610416565b92505060606104be87828801610416565b91505092959194509250565b600081519050919050565b7f4e487b7100000000000000000000000000000000000000000000000000000000600052602260045260246000fd5b6000600282049050600182168061051c57607f821691505b60208210810361052f5761052e6104d5565b5b50919050565b60008190508160005260206000209050919050565b60006020601f8301049050919050565b600082821b905092915050565b6000600883026105977fffffffffffffffffffffffffffffffffffffffffffffffffffffffffffffffff8261055a565b6105a1868361055a565b95508019841693508086168417925050509392505050565b6000819050919050565b6000819050919050565b60006105e86105e36105de846105b9565b6105c3565b6105b9565b9050919050565b6000819050919050565b610602836105cd565b61061661060e826105ef565b848454610567565b825550505050565b600090565b61062b61061e565b6106368184846105f9565b505050565b5b8181101561065a5761064f600082610623565b60018101905061063c565b5050565b601f82111561069f5761067081610535565b6106798461054a565b81016020851015610688578190505b61069c6106948561054a565b83018261063b565b50505b505050565b600082821c905092915050565b60006106c2600019846008026106a4565b1980831691505092915050565b60006106db83836106b1565b9150826002028217905092915050565b6106f4826104ca565b67ffffffffffffffff81111561070d5761070c610287565b5b6107178254610504565b61072282828561065e565b600060209050601f8311600181146107555760008415610743578287015190505b61074d85826106cf565b8655506107b5565b601f19841661076386610535565b60005b8281101561078b57848901518255600182019150602085019450602081019050610766565b868310156107a857848901516107a4601f8916826106b1565b8355505b6001600288020188555050505b505050505050565b6107c6816103ed565b82525050565b60006020820190506107e160008301846107bd565b92915050565b600082825260208201905092915050565b7f5469636b65744e46543a20496e646972697a7a6f204d61726b6574706c61636560008201527f206e6f6e2076616c69646f000000000000000000000000000000000000000000602082015250565b6000610854602b836107e7565b915061085f826107f8565b604082019050919050565b6000602082019050818103600083015261088381610847565b9050919050565b613598806108996000396000f3fe60806040526004361061014b5760003560e01c80638da5cb5b116100b6578063b88d4fde1161006f578063b88d4fde146104a7578063c87b56dd146104d0578063d1bb5cf11461050d578063e870cb6614610538578063e985e9c514610575578063f2fde38b146105b25761014b565b80638da5cb5b146103995780639369397a146103c457806395d89b41146103ed57806395fa6c5014610418578063a22cb46514610455578063b47cc5561461047e5761014b565b8063394803fd11610108578063394803fd1461028457806342842e0e146102c35780634564988b146102ec5780636352211e1461030857806370a0823114610345578063715018a6146103825761014b565b806301ffc9a71461015057806306fdde031461018d578063081812fc146101b8578063095ea7b3146101f557806323b872dd1461021e5780632ee44c2b14610247575b600080fd5b34801561015c57600080fd5b50610177600480360381019061017291906123f5565b6105db565b604051610184919061243d565b60405180910390f35b34801561019957600080fd5b506101a26106bd565b6040516101af91906124e8565b60405180910390f35b3480156101c457600080fd5b506101df60048036038101906101da9190612540565b61074f565b6040516101ec91906125ae565b60405180910390f35b34801561020157600080fd5b5061021c600480360381019061021791906125f5565b61076b565b005b34801561022a57600080fd5b5061024560048036038101906102409190612635565b610781565b005b34801561025357600080fd5b5061026e60048036038101906102699190612540565b610883565b60405161027b9190612697565b60405180910390f35b34801561029057600080fd5b506102ab60048036038101906102a69190612540565b61089b565b6040516102ba939291906126b2565b60405180910390f35b3480156102cf57600080fd5b506102ea60048036038101906102e59190612635565b6108c5565b005b61030660048036038101906103019190612540565b6108e5565b005b34801561031457600080fd5b5061032f600480360381019061032a9190612540565b610d25565b60405161033c91906125ae565b60405180910390f35b34801561035157600080fd5b5061036c600480360381019061036791906126e9565b610d37565b6040516103799190612697565b60405180910390f35b34801561038e57600080fd5b50610397610df1565b005b3480156103a557600080fd5b506103ae610e05565b6040516103bb91906125ae565b60405180910390f35b3480156103d057600080fd5b506103eb60048036038101906103e69190612754565b610e2f565b005b3480156103f957600080fd5b50610402611049565b60405161040f91906124e8565b60405180910390f35b34801561042457600080fd5b5061043f600480360381019061043a9190612540565b6110db565b60405161044c91906127b6565b60405180910390f35b34801561046157600080fd5b5061047c600480360381019061047791906127fd565b61110e565b005b34801561048a57600080fd5b506104a560048036038101906104a091906126e9565b611124565b005b3480156104b357600080fd5b506104ce60048036038101906104c99190612972565b6111df565b005b3480156104dc57600080fd5b506104f760048036038101906104f29190612540565b611204565b60405161050491906124e8565b60405180910390f35b34801561051957600080fd5b5061052261126d565b60405161052f9190612a54565b60405180910390f35b34801561054457600080fd5b5061055f600480360381019061055a9190612a6f565b611293565b60405161056c9190612697565b60405180910390f35b34801561058157600080fd5b5061059c60048036038101906105979190612ac2565b611363565b6040516105a9919061243d565b60405180910390f35b3480156105be57600080fd5b506105d960048036038101906105d491906126e9565b6113f7565b005b60007f80ac58cd000000000000000000000000000000000000000000000000000000007bffffffffffffffffffffffffffffffffffffffffffffffffffffffff1916827bffffffffffffffffffffffffffffffffffffffffffffffffffffffff191614806106a657507f5b5e139f000000000000000000000000000000000000000000000000000000007bffffffffffffffffffffffffffffffffffffffffffffffffffffffff1916827bffffffffffffffffffffffffffffffffffffffffffffffffffffffff1916145b806106b657506106b58261147d565b5b9050919050565b6060600080546106cc90612b31565b80601f01602080910402602001604051908101604052809291908181526020018280546106f890612b31565b80156107455780601f1061071a57610100808354040283529160200191610745565b820191906000526020600020905b81548152906001019060200180831161072857829003601f168201915b5050505050905090565b600061075a826114e7565b506107648261156f565b9050919050565b61077d82826107786115ac565b6115b4565b5050565b600073ffffffffffffffffffffffffffffffffffffffff168273ffffffffffffffffffffffffffffffffffffffff16036107f35760006040517f64a0ae920000000000000000000000000000000000000000000000000000000081526004016107ea91906125ae565b60405180910390fd5b600061080783836108026115ac565b6115c6565b90508373ffffffffffffffffffffffffffffffffffffffff168173ffffffffffffffffffffffffffffffffffffffff161461087d578382826040517f64283d7b00000000000000000000000000000000000000000000000000000000815260040161087493929190612b62565b60405180910390fd5b50505050565b600a6020528060005260406000206000915090505481565b600b6020528060005260406000206000915090508060000154908060010154908060020154905083565b6108e0838383604051806020016040528060008152506111df565b505050565b60006009600083815260200190815260200160002060009054906101000a900473ffffffffffffffffffffffffffffffffffffffff1690506000600a6000848152602001908152602001600020549050600073ffffffffffffffffffffffffffffffffffffffff168273ffffffffffffffffffffffffffffffffffffffff16036109a4576040517f08c379a000000000000000000000000000000000000000000000000000000000815260040161099b90612c0b565b60405180910390fd5b6000600860009054906101000a900473ffffffffffffffffffffffffffffffffffffffff1673ffffffffffffffffffffffffffffffffffffffff1663431fbc686040518163ffffffff1660e01b8152600401602060405180830381865afa158015610a13573d6000803e3d6000fd5b505050506040513d601f19601f82011682018060405250810190610a379190612c40565b90506000600860009054906101000a900473ffffffffffffffffffffffffffffffffffffffff1673ffffffffffffffffffffffffffffffffffffffff16635641f3c36040518163ffffffff1660e01b8152600401602060405180830381865afa158015610aa8573d6000803e3d6000fd5b505050506040513d601f19601f82011682018060405250810190610acc9190612c82565b9050600073ffffffffffffffffffffffffffffffffffffffff168173ffffffffffffffffffffffffffffffffffffffff1603610b3d576040517f08c379a0000000000000000000000000000000000000000000000000000000008152600401610b3490612d21565b60405180910390fd5b60006127108385610b4e9190612d70565b610b589190612de1565b905060008185610b689190612e12565b9050803414610bac576040517f08c379a0000000000000000000000000000000000000000000000000000000008152600401610ba390612eb8565b60405180910390fd5b6000821115610c635760008373ffffffffffffffffffffffffffffffffffffffff1683604051610bdb90612f09565b60006040518083038185875af1925050503d8060008114610c18576040519150601f19603f3d011682016040523d82523d6000602084013e610c1d565b606091505b5050905080610c61576040517f08c379a0000000000000000000000000000000000000000000000000000000008152600401610c5890612f90565b60405180910390fd5b505b60008673ffffffffffffffffffffffffffffffffffffffff1686604051610c8990612f09565b60006040518083038185875af1925050503d8060008114610cc6576040519150601f19603f3d011682016040523d82523d6000602084013e610ccb565b606091505b5050905080610d0f576040517f08c379a0000000000000000000000000000000000000000000000000000000008152600401610d0690613022565b60405180910390fd5b610d1a3389886117e0565b505050505050505050565b6000610d30826114e7565b9050919050565b60008073ffffffffffffffffffffffffffffffffffffffff168273ffffffffffffffffffffffffffffffffffffffff1603610daa5760006040517f89c62b64000000000000000000000000000000000000000000000000000000008152600401610da191906125ae565b60405180910390fd5b600360008373ffffffffffffffffffffffffffffffffffffffff1673ffffffffffffffffffffffffffffffffffffffff168152602001908152602001600020549050919050565b610df9611864565b610e0360006118eb565b565b6000600660009054906101000a900473ffffffffffffffffffffffffffffffffffffffff16905090565b610e37611864565b600073ffffffffffffffffffffffffffffffffffffffff168273ffffffffffffffffffffffffffffffffffffffff1603610ea6576040517f08c379a0000000000000000000000000000000000000000000000000000000008152600401610e9d906130b4565b60405180910390fd5b600073ffffffffffffffffffffffffffffffffffffffff166009600085815260200190815260200160002060009054906101000a900473ffffffffffffffffffffffffffffffffffffffff1673ffffffffffffffffffffffffffffffffffffffff1614610f48576040517f08c379a0000000000000000000000000000000000000000000000000000000008152600401610f3f90613146565b60405180910390fd5b60008111610f8b576040517f08c379a0000000000000000000000000000000000000000000000000000000008152600401610f82906131d8565b60405180910390fd5b816009600085815260200190815260200160002060006101000a81548173ffffffffffffffffffffffffffffffffffffffff021916908373ffffffffffffffffffffffffffffffffffffffff16021790555080600a6000858152602001908152602001600020819055508173ffffffffffffffffffffffffffffffffffffffff16837f992fab36eae044cb10bbca598664ac6112f28a1b0a180a89a47e9b3cc5e2d3848360405161103c9190612697565b60405180910390a3505050565b60606001805461105890612b31565b80601f016020809104026020016040519081016040528092919081815260200182805461108490612b31565b80156110d15780601f106110a6576101008083540402835291602001916110d1565b820191906000526020600020905b8154815290600101906020018083116110b457829003601f168201915b5050505050905090565b60096020528060005260406000206000915054906101000a900473ffffffffffffffffffffffffffffffffffffffff1681565b6111206111196115ac565b83836119b1565b5050565b61112c611864565b600073ffffffffffffffffffffffffffffffffffffffff168173ffffffffffffffffffffffffffffffffffffffff160361119b576040517f08c379a00000000000000000000000000000000000000000000000000000000081526004016111929061326a565b60405180910390fd5b80600860006101000a81548173ffffffffffffffffffffffffffffffffffffffff021916908373ffffffffffffffffffffffffffffffffffffffff16021790555050565b6111ea848484610781565b6111fe6111f56115ac565b85858585611b20565b50505050565b606061120f826114e7565b50600061121a611cd1565b9050600081511161123a5760405180602001604052806000815250611265565b8061124484611ce8565b6040516020016112559291906132c6565b6040516020818303038152906040525b915050919050565b600860009054906101000a900473ffffffffffffffffffffffffffffffffffffffff1681565b600061129d611864565b600073ffffffffffffffffffffffffffffffffffffffff168473ffffffffffffffffffffffffffffffffffffffff160361130c576040517f08c379a00000000000000000000000000000000000000000000000000000000081526004016113039061335c565b60405180910390fd5b6000821161134f576040517f08c379a0000000000000000000000000000000000000000000000000000000008152600401611346906133ee565b60405180910390fd5b61135a8484846117e0565b90509392505050565b6000600560008473ffffffffffffffffffffffffffffffffffffffff1673ffffffffffffffffffffffffffffffffffffffff16815260200190815260200160002060008373ffffffffffffffffffffffffffffffffffffffff1673ffffffffffffffffffffffffffffffffffffffff16815260200190815260200160002060009054906101000a900460ff16905092915050565b6113ff611864565b600073ffffffffffffffffffffffffffffffffffffffff168173ffffffffffffffffffffffffffffffffffffffff16036114715760006040517f1e4fbdf700000000000000000000000000000000000000000000000000000000815260040161146891906125ae565b60405180910390fd5b61147a816118eb565b50565b60007f01ffc9a7000000000000000000000000000000000000000000000000000000007bffffffffffffffffffffffffffffffffffffffffffffffffffffffff1916827bffffffffffffffffffffffffffffffffffffffffffffffffffffffff1916149050919050565b6000806114f383611db6565b9050600073ffffffffffffffffffffffffffffffffffffffff168173ffffffffffffffffffffffffffffffffffffffff160361156657826040517f7e27328900000000000000000000000000000000000000000000000000000000815260040161155d9190612697565b60405180910390fd5b80915050919050565b60006004600083815260200190815260200160002060009054906101000a900473ffffffffffffffffffffffffffffffffffffffff169050919050565b600033905090565b6115c18383836001611df3565b505050565b6000806115d284611db6565b9050600073ffffffffffffffffffffffffffffffffffffffff168373ffffffffffffffffffffffffffffffffffffffff161461161457611613818486611fb8565b5b600073ffffffffffffffffffffffffffffffffffffffff168173ffffffffffffffffffffffffffffffffffffffff16146116a557611656600085600080611df3565b6001600360008373ffffffffffffffffffffffffffffffffffffffff1673ffffffffffffffffffffffffffffffffffffffff168152602001908152602001600020600082825403925050819055505b600073ffffffffffffffffffffffffffffffffffffffff168573ffffffffffffffffffffffffffffffffffffffff1614611728576001600360008773ffffffffffffffffffffffffffffffffffffffff1673ffffffffffffffffffffffffffffffffffffffff168152602001908152602001600020600082825401925050819055505b846002600086815260200190815260200160002060006101000a81548173ffffffffffffffffffffffffffffffffffffffff021916908373ffffffffffffffffffffffffffffffffffffffff160217905550838573ffffffffffffffffffffffffffffffffffffffff168273ffffffffffffffffffffffffffffffffffffffff167fddf252ad1be2c89b69c2b068fc378daa952ba7f163c4a11628f55a4df523b3ef60405160405180910390a4809150509392505050565b6000806007549050600760008154809291906117fb9061340e565b919050555061180a858261207c565b604051806060016040528085815260200184815260200142815250600b6000838152602001908152602001600020600082015181600001556020820151816001015560408201518160020155905050809150509392505050565b61186c6115ac565b73ffffffffffffffffffffffffffffffffffffffff1661188a610e05565b73ffffffffffffffffffffffffffffffffffffffff16146118e9576118ad6115ac565b6040517f118cdaa70000000000000000000000000000000000000000000000000000000081526004016118e091906125ae565b60405180910390fd5b565b6000600660009054906101000a900473ffffffffffffffffffffffffffffffffffffffff16905081600660006101000a81548173ffffffffffffffffffffffffffffffffffffffff021916908373ffffffffffffffffffffffffffffffffffffffff1602179055508173ffffffffffffffffffffffffffffffffffffffff168173ffffffffffffffffffffffffffffffffffffffff167f8be0079c531659141344cd1fd0a4f28419497f9722a3daafe3b4186f6b6457e060405160405180910390a35050565b600073ffffffffffffffffffffffffffffffffffffffff168273ffffffffffffffffffffffffffffffffffffffff1603611a2257816040517f5b08ba18000000000000000000000000000000000000000000000000000000008152600401611a1991906125ae565b60405180910390fd5b80600560008573ffffffffffffffffffffffffffffffffffffffff1673ffffffffffffffffffffffffffffffffffffffff16815260200190815260200160002060008473ffffffffffffffffffffffffffffffffffffffff1673ffffffffffffffffffffffffffffffffffffffff16815260200190815260200160002060006101000a81548160ff0219169083151502179055508173ffffffffffffffffffffffffffffffffffffffff168373ffffffffffffffffffffffffffffffffffffffff167f17307eab39ab6107e8899845ad3d59bd9653f200f220920489ca2b5937696c3183604051611b13919061243d565b60405180910390a3505050565b60008373ffffffffffffffffffffffffffffffffffffffff163b1115611cca578273ffffffffffffffffffffffffffffffffffffffff1663150b7a02868685856040518563ffffffff1660e01b8152600401611b7f94939291906134ab565b6020604051808303816000875af1925050508015611bbb57506040513d601f19601f82011682018060405250810190611bb8919061350c565b60015b611c3f573d8060008114611beb576040519150601f19603f3d011682016040523d82523d6000602084013e611bf0565b606091505b506000815103611c3757836040517f64a0ae92000000000000000000000000000000000000000000000000000000008152600401611c2e91906125ae565b60405180910390fd5b805181602001fd5b63150b7a0260e01b7bffffffffffffffffffffffffffffffffffffffffffffffffffffffff1916817bffffffffffffffffffffffffffffffffffffffffffffffffffffffff191614611cc857836040517f64a0ae92000000000000000000000000000000000000000000000000000000008152600401611cbf91906125ae565b60405180910390fd5b505b5050505050565b606060405180602001604052806000815250905090565b606060006001611cf784612175565b01905060008167ffffffffffffffff811115611d1657611d15612847565b5b6040519080825280601f01601f191660200182016040528015611d485781602001600182028036833780820191505090505b509050600082602001820190505b600115611dab578080600190039150507f3031323334353637383961626364656600000000000000000000000000000000600a86061a8153600a8581611d9f57611d9e612db2565b5b04945060008503611d56575b819350505050919050565b60006002600083815260200190815260200160002060009054906101000a900473ffffffffffffffffffffffffffffffffffffffff169050919050565b8080611e2c5750600073ffffffffffffffffffffffffffffffffffffffff168273ffffffffffffffffffffffffffffffffffffffff1614155b15611f60576000611e3c846114e7565b9050600073ffffffffffffffffffffffffffffffffffffffff168373ffffffffffffffffffffffffffffffffffffffff1614158015611ea757508273ffffffffffffffffffffffffffffffffffffffff168173ffffffffffffffffffffffffffffffffffffffff1614155b8015611eba5750611eb88184611363565b155b15611efc57826040517fa9fbf51f000000000000000000000000000000000000000000000000000000008152600401611ef391906125ae565b60405180910390fd5b8115611f5e57838573ffffffffffffffffffffffffffffffffffffffff168273ffffffffffffffffffffffffffffffffffffffff167f8c5be1e5ebec7d5bd14f71427d1e84f3dd0314c0f7b2291e5b200ac8c7c3b92560405160405180910390a45b505b836004600085815260200190815260200160002060006101000a81548173ffffffffffffffffffffffffffffffffffffffff021916908373ffffffffffffffffffffffffffffffffffffffff16021790555050505050565b611fc38383836122c8565b61207757600073ffffffffffffffffffffffffffffffffffffffff168373ffffffffffffffffffffffffffffffffffffffff160361203857806040517f7e27328900000000000000000000000000000000000000000000000000000000815260040161202f9190612697565b60405180910390fd5b81816040517f177e802f00000000000000000000000000000000000000000000000000000000815260040161206e929190613539565b60405180910390fd5b505050565b600073ffffffffffffffffffffffffffffffffffffffff168273ffffffffffffffffffffffffffffffffffffffff16036120ee5760006040517f64a0ae920000000000000000000000000000000000000000000000000000000081526004016120e591906125ae565b60405180910390fd5b60006120fc838360006115c6565b9050600073ffffffffffffffffffffffffffffffffffffffff168173ffffffffffffffffffffffffffffffffffffffff16146121705760006040517f73c6ac6e00000000000000000000000000000000000000000000000000000000815260040161216791906125ae565b60405180910390fd5b505050565b600080600090507a184f03e93ff9f4daa797ed6e38ed64bf6a1f01000000000000000083106121d3577a184f03e93ff9f4daa797ed6e38ed64bf6a1f01000000000000000083816121c9576121c8612db2565b5b0492506040810190505b6d04ee2d6d415b85acef81000000008310612210576d04ee2d6d415b85acef8100000000838161220657612205612db2565b5b0492506020810190505b662386f26fc10000831061223f57662386f26fc10000838161223557612234612db2565b5b0492506010810190505b6305f5e1008310612268576305f5e100838161225e5761225d612db2565b5b0492506008810190505b612710831061228d57612710838161228357612282612db2565b5b0492506004810190505b606483106122b057606483816122a6576122a5612db2565b5b0492506002810190505b600a83106122bf576001810190505b80915050919050565b60008073ffffffffffffffffffffffffffffffffffffffff168373ffffffffffffffffffffffffffffffffffffffff161415801561238057508273ffffffffffffffffffffffffffffffffffffffff168473ffffffffffffffffffffffffffffffffffffffff16148061234157506123408484611363565b5b8061237f57508273ffffffffffffffffffffffffffffffffffffffff166123678361156f565b73ffffffffffffffffffffffffffffffffffffffff16145b5b90509392505050565b6000604051905090565b600080fd5b600080fd5b60007fffffffff0000000000000000000000000000000000000000000000000000000082169050919050565b6123d28161239d565b81146123dd57600080fd5b50565b6000813590506123ef816123c9565b92915050565b60006020828403121561240b5761240a612393565b5b6000612419848285016123e0565b91505092915050565b60008115159050919050565b61243781612422565b82525050565b6000602082019050612452600083018461242e565b92915050565b600081519050919050565b600082825260208201905092915050565b60005b83811015612492578082015181840152602081019050612477565b60008484015250505050565b6000601f19601f8301169050919050565b60006124ba82612458565b6124c48185612463565b93506124d4818560208601612474565b6124dd8161249e565b840191505092915050565b6000602082019050818103600083015261250281846124af565b905092915050565b6000819050919050565b61251d8161250a565b811461252857600080fd5b50565b60008135905061253a81612514565b92915050565b60006020828403121561255657612555612393565b5b60006125648482850161252b565b91505092915050565b600073ffffffffffffffffffffffffffffffffffffffff82169050919050565b60006125988261256d565b9050919050565b6125a88161258d565b82525050565b60006020820190506125c3600083018461259f565b92915050565b6125d28161258d565b81146125dd57600080fd5b50565b6000813590506125ef816125c9565b92915050565b6000806040838503121561260c5761260b612393565b5b600061261a858286016125e0565b925050602061262b8582860161252b565b9150509250929050565b60008060006060848603121561264e5761264d612393565b5b600061265c868287016125e0565b935050602061266d868287016125e0565b925050604061267e8682870161252b565b9150509250925092565b6126918161250a565b82525050565b60006020820190506126ac6000830184612688565b92915050565b60006060820190506126c76000830186612688565b6126d46020830185612688565b6126e16040830184612688565b949350505050565b6000602082840312156126ff576126fe612393565b5b600061270d848285016125e0565b91505092915050565b60006127218261256d565b9050919050565b61273181612716565b811461273c57600080fd5b50565b60008135905061274e81612728565b92915050565b60008060006060848603121561276d5761276c612393565b5b600061277b8682870161252b565b935050602061278c8682870161273f565b925050604061279d8682870161252b565b9150509250925092565b6127b081612716565b82525050565b60006020820190506127cb60008301846127a7565b92915050565b6127da81612422565b81146127e557600080fd5b50565b6000813590506127f7816127d1565b92915050565b6000806040838503121561281457612813612393565b5b6000612822858286016125e0565b9250506020612833858286016127e8565b9150509250929050565b600080fd5b600080fd5b7f4e487b7100000000000000000000000000000000000000000000000000000000600052604160045260246000fd5b61287f8261249e565b810181811067ffffffffffffffff8211171561289e5761289d612847565b5b80604052505050565b60006128b1612389565b90506128bd8282612876565b919050565b600067ffffffffffffffff8211156128dd576128dc612847565b5b6128e68261249e565b9050602081019050919050565b82818337600083830152505050565b6000612915612910846128c2565b6128a7565b90508281526020810184848401111561293157612930612842565b5b61293c8482856128f3565b509392505050565b600082601f8301126129595761295861283d565b5b8135612969848260208601612902565b91505092915050565b6000806000806080858703121561298c5761298b612393565b5b600061299a878288016125e0565b94505060206129ab878288016125e0565b93505060406129bc8782880161252b565b925050606085013567ffffffffffffffff8111156129dd576129dc612398565b5b6129e987828801612944565b91505092959194509250565b6000819050919050565b6000612a1a612a15612a108461256d565b6129f5565b61256d565b9050919050565b6000612a2c826129ff565b9050919050565b6000612a3e82612a21565b9050919050565b612a4e81612a33565b82525050565b6000602082019050612a696000830184612a45565b92915050565b600080600060608486031215612a8857612a87612393565b5b6000612a96868287016125e0565b9350506020612aa78682870161252b565b9250506040612ab88682870161252b565b9150509250925092565b60008060408385031215612ad957612ad8612393565b5b6000612ae7858286016125e0565b9250506020612af8858286016125e0565b9150509250929050565b7f4e487b7100000000000000000000000000000000000000000000000000000000600052602260045260246000fd5b60006002820490506001821680612b4957607f821691505b602082108103612b5c57612b5b612b02565b5b50919050565b6000606082019050612b77600083018661259f565b612b846020830185612688565b612b91604083018461259f565b949350505050565b7f5469636b65744e46543a204576656e746f206e6f6e207265676973747261746f60008201527f206f20696e76616c69646f000000000000000000000000000000000000000000602082015250565b6000612bf5602b83612463565b9150612c0082612b99565b604082019050919050565b60006020820190508181036000830152612c2481612be8565b9050919050565b600081519050612c3a81612514565b92915050565b600060208284031215612c5657612c55612393565b5b6000612c6484828501612c2b565b91505092915050565b600081519050612c7c81612728565b92915050565b600060208284031215612c9857612c97612393565b5b6000612ca684828501612c6d565b91505092915050565b7f5469636b65744e46543a2057616c6c65742073657276697a696f206e6f6e206360008201527f6f6e666967757261746f206e656c204d61726b6574706c616365000000000000602082015250565b6000612d0b603a83612463565b9150612d1682612caf565b604082019050919050565b60006020820190508181036000830152612d3a81612cfe565b9050919050565b7f4e487b7100000000000000000000000000000000000000000000000000000000600052601160045260246000fd5b6000612d7b8261250a565b9150612d868361250a565b9250828202612d948161250a565b91508282048414831517612dab57612daa612d41565b5b5092915050565b7f4e487b7100000000000000000000000000000000000000000000000000000000600052601260045260246000fd5b6000612dec8261250a565b9150612df78361250a565b925082612e0757612e06612db2565b5b828204905092915050565b6000612e1d8261250a565b9150612e288361250a565b9250828201905080821115612e4057612e3f612d41565b5b92915050565b7f5469636b65744e46543a20506167616d656e746f2065736174746f207269636860008201527f696573746f20287072657a7a6f202b2066656529000000000000000000000000602082015250565b6000612ea2603483612463565b9150612ead82612e46565b604082019050919050565b60006020820190508181036000830152612ed181612e95565b9050919050565b600081905092915050565b50565b6000612ef3600083612ed8565b9150612efe82612ee3565b600082019050919050565b6000612f1482612ee6565b9150819050919050565b7f5469636b65744e46543a2054726173666572696d656e746f20636f6d6d69737360008201527f696f6e652066616c6c69746f0000000000000000000000000000000000000000602082015250565b6000612f7a602c83612463565b9150612f8582612f1e565b604082019050919050565b60006020820190508181036000830152612fa981612f6d565b9050919050565b7f5469636b65744e46543a2054726173666572696d656e746f207072657a7a6f2060008201527f66616c6c69746f00000000000000000000000000000000000000000000000000602082015250565b600061300c602783612463565b915061301782612fb0565b604082019050919050565b6000602082019050818103600083015261303b81612fff565b9050919050565b7f5469636b65744e46543a20496e646972697a7a6f2063726561746f7265206e6f60008201527f6e2076616c69646f000000000000000000000000000000000000000000000000602082015250565b600061309e602883612463565b91506130a982613042565b604082019050919050565b600060208201905081810360008301526130cd81613091565b9050919050565b7f5469636b65744e46543a204576656e744964206769612720726567697374726160008201527f746f000000000000000000000000000000000000000000000000000000000000602082015250565b6000613130602283612463565b915061313b826130d4565b604082019050919050565b6000602082019050818103600083015261315f81613123565b9050919050565b7f5469636b65744e46543a205072657a7a6f206f726967696e616c65206465766560008201527f2065737365726520706f73697469766f00000000000000000000000000000000602082015250565b60006131c2603083612463565b91506131cd82613166565b604082019050919050565b600060208201905081810360008301526131f1816131b5565b9050919050565b7f5469636b65744e46543a204e756f766f20696e646972697a7a6f204d61726b6560008201527f74706c616365206e6f6e2076616c69646f000000000000000000000000000000602082015250565b6000613254603183612463565b915061325f826131f8565b604082019050919050565b6000602082019050818103600083015261328381613247565b9050919050565b600081905092915050565b60006132a082612458565b6132aa818561328a565b93506132ba818560208601612474565b80840191505092915050565b60006132d28285613295565b91506132de8284613295565b91508190509392505050565b7f5469636b65744e46543a2044657374696e61746172696f206e6f6e2076616c6960008201527f646f000000000000000000000000000000000000000000000000000000000000602082015250565b6000613346602283612463565b9150613351826132ea565b604082019050919050565b6000602082019050818103600083015261337581613339565b9050919050565b7f5469636b65744e46543a205072657a7a6f206f726967696e616c65202870617260008201527f616d6574726f2920646576652065737365726520706f73697469766f00000000602082015250565b60006133d8603c83612463565b91506133e38261337c565b604082019050919050565b60006020820190508181036000830152613407816133cb565b9050919050565b60006134198261250a565b91507fffffffffffffffffffffffffffffffffffffffffffffffffffffffffffffffff820361344b5761344a612d41565b5b600182019050919050565b600081519050919050565b600082825260208201905092915050565b600061347d82613456565b6134878185613461565b9350613497818560208601612474565b6134a08161249e565b840191505092915050565b60006080820190506134c0600083018761259f565b6134cd602083018661259f565b6134da6040830185612688565b81810360608301526134ec8184613472565b905095945050505050565b600081519050613506816123c9565b92915050565b60006020828403121561352257613521612393565b5b6000613530848285016134f7565b91505092915050565b600060408201905061354e600083018561259f565b61355b6020830184612688565b939250505056fea264697066735822122092d85c66e6631af014e42e47e5ae521c5bc30deadaa628adbbb8adc31eaef77064736f6c634300081c0033",
  "linkReferences": {},
  "deployedLinkReferences": {}
}